{
  "_format": "hh-sol-artifact-1",
  "contractName": "Voting",
  "sourceName": "contracts/Voting.sol",
  "abi": [
    {
      "anonymous": false,
      "inputs": [
        {
          "indexed": true,
          "internalType": "uint256",
          "name": "proposalId",
          "type": "uint256"
        },
        {
          "indexed": true,
          "internalType": "address",
          "name": "from",
          "type": "address"
        },
        {
          "indexed": false,
          "internalType": "uint256",
          "name": "vote",
          "type": "uint256"
        }
      ],
      "name": "VoteCasted",
      "type": "event"
    },
    {
      "inputs": [],
      "name": "clean",
      "outputs": [],
      "stateMutability": "nonpayable",
      "type": "function"
    },
    {
      "inputs": [
        {
          "internalType": "address",
          "name": "_user",
          "type": "address"
        }
      ],
      "name": "getVote",
      "outputs": [
        {
          "internalType": "uint256",
          "name": "",
          "type": "uint256"
        }
      ],
      "stateMutability": "view",
      "type": "function"
    },
    {
      "inputs": [],
      "name": "proposalId",
      "outputs": [
        {
          "internalType": "uint256",
          "name": "",
          "type": "uint256"
        }
      ],
      "stateMutability": "view",
      "type": "function"
    },
    {
      "inputs": [
        {
          "internalType": "uint256",
          "name": "_vote",
          "type": "uint256"
        }
      ],
      "name": "vote",
      "outputs": [],
      "stateMutability": "payable",
      "type": "function"
    },
    {
      "inputs": [],
      "name": "votesForNoRecomendable",
      "outputs": [
        {
          "internalType": "uint256",
          "name": "",
          "type": "uint256"
        }
      ],
      "stateMutability": "view",
      "type": "function"
    },
    {
      "inputs": [],
      "name": "votesForRecomendable",
      "outputs": [
        {
          "internalType": "uint256",
          "name": "",
          "type": "uint256"
        }
      ],
      "stateMutability": "view",
      "type": "function"
    }
  ],
  "bytecode": "0x608060405234801561001057600080fd5b50610585806100206000396000f3fe6080604052600436106100555760003560e01c80630121b93f1461005a57806302461bce14610076578063088a7940146100a15780632dfca445146100cc5780638d337b81146100f7578063fc4333cd14610134575b600080fd5b610074600480360381019061006f9190610353565b61014b565b005b34801561008257600080fd5b5061008b610281565b604051610098919061038f565b60405180910390f35b3480156100ad57600080fd5b506100b6610287565b6040516100c3919061038f565b60405180910390f35b3480156100d857600080fd5b506100e161028d565b6040516100ee919061038f565b60405180910390f35b34801561010357600080fd5b5061011e60048036038101906101199190610408565b610293565b60405161012b919061038f565b60405180910390f35b34801561014057600080fd5b506101496102ee565b005b600181148061015a5750600281145b610199576040517f08c379a0000000000000000000000000000000000000000000000000000000008152600401610190906104b8565b60405180910390fd5b80600080600154815260200190815260200160002060003373ffffffffffffffffffffffffffffffffffffffff1673ffffffffffffffffffffffffffffffffffffffff1681526020019081526020016000208190555060018103610214576002600081548092919061020a90610507565b919050555061022d565b6003600081548092919061022790610507565b91905055505b3373ffffffffffffffffffffffffffffffffffffffff166001547fe7ee74ca1f4bb1b82b14f87794c45b3e59c39e372b862fb97a6316b43355b69e83604051610276919061038f565b60405180910390a350565b60035481565b60025481565b60015481565b6000806000600154815260200190815260200160002060008373ffffffffffffffffffffffffffffffffffffffff1673ffffffffffffffffffffffffffffffffffffffff168152602001908152602001600020549050919050565b6001600081548092919061030190610507565b919050555060006002819055506000600381905550565b600080fd5b6000819050919050565b6103308161031d565b811461033b57600080fd5b50565b60008135905061034d81610327565b92915050565b60006020828403121561036957610368610318565b5b60006103778482850161033e565b91505092915050565b6103898161031d565b82525050565b60006020820190506103a46000830184610380565b92915050565b600073ffffffffffffffffffffffffffffffffffffffff82169050919050565b60006103d5826103aa565b9050919050565b6103e5816103ca565b81146103f057600080fd5b50565b600081359050610402816103dc565b92915050565b60006020828403121561041e5761041d610318565b5b600061042c848285016103f3565b91505092915050565b600082825260208201905092915050565b7f536f6c6f2070756564657320766f74617220706f72205265636f6d656e64616260008201527f6c65206f204e6f207265636f6d656e6461626c65000000000000000000000000602082015250565b60006104a2603483610435565b91506104ad82610446565b604082019050919050565b600060208201905081810360008301526104d181610495565b9050919050565b7f4e487b7100000000000000000000000000000000000000000000000000000000600052601160045260246000fd5b60006105128261031d565b91507fffffffffffffffffffffffffffffffffffffffffffffffffffffffffffffffff8203610544576105436104d8565b5b60018201905091905056fea2646970667358221220a6ac81d4e3b088fb05b0f8741c24d7e021567c43244f1858da1320d41369217364736f6c63430008110033",
  "linkReferences": {},
  "deployedLinkReferences": {}
}