{
  "_format": "hh-sol-artifact-1",
  "contractName": "Creators",
  "sourceName": "contracts/Creators.sol",
  "abi": [
    {
      "inputs": [],
      "stateMutability": "payable",
      "type": "constructor"
    },
    {
      "anonymous": false,
      "inputs": [
        {
          "indexed": false,
          "internalType": "uint256",
          "name": "id",
          "type": "uint256"
        },
        {
          "indexed": false,
          "internalType": "string",
          "name": "username",
          "type": "string"
        },
        {
          "indexed": false,
          "internalType": "address payable",
          "name": "walletAddress",
          "type": "address"
        },
        {
          "indexed": false,
          "internalType": "string",
          "name": "ipfsHash",
          "type": "string"
        },
        {
          "indexed": false,
          "internalType": "string",
          "name": "userbio",
          "type": "string"
        },
        {
          "indexed": false,
          "internalType": "uint256",
          "name": "bountiesReceived",
          "type": "uint256"
        },
        {
          "indexed": false,
          "internalType": "uint256",
          "name": "supporters",
          "type": "uint256"
        }
      ],
      "name": "CreatorSubmission",
      "type": "event"
    },
    {
      "anonymous": false,
      "inputs": [
        {
          "indexed": true,
          "internalType": "address",
          "name": "from",
          "type": "address"
        },
        {
          "indexed": false,
          "internalType": "uint256",
          "name": "timestamp",
          "type": "uint256"
        },
        {
          "indexed": false,
          "internalType": "string",
          "name": "message",
          "type": "string"
        }
      ],
      "name": "SupporterSubmission",
      "type": "event"
    },
    {
      "inputs": [],
      "name": "creatorCounter",
      "outputs": [
        {
          "internalType": "uint256",
          "name": "",
          "type": "uint256"
        }
      ],
      "stateMutability": "view",
      "type": "function"
    },
    {
      "inputs": [
        {
          "internalType": "uint256",
          "name": "index",
          "type": "uint256"
        },
        {
          "internalType": "uint256",
          "name": "amount",
          "type": "uint256"
        }
      ],
      "name": "creatorWithdrawTip",
      "outputs": [
        {
          "internalType": "address payable",
          "name": "_creatorAddress",
          "type": "address"
        }
      ],
      "stateMutability": "nonpayable",
      "type": "function"
    },
    {
      "inputs": [],
      "name": "getCreatorList",
      "outputs": [
        {
          "components": [
            {
              "internalType": "uint256",
              "name": "id",
              "type": "uint256"
            },
            {
              "internalType": "string",
              "name": "username",
              "type": "string"
            },
            {
              "internalType": "string",
              "name": "ipfsHash",
              "type": "string"
            },
            {
              "internalType": "address payable",
              "name": "walletAddress",
              "type": "address"
            },
            {
              "internalType": "string",
              "name": "userbio",
              "type": "string"
            },
            {
              "internalType": "uint256",
              "name": "bountiesReceived",
              "type": "uint256"
            },
            {
              "internalType": "uint256",
              "name": "supporters",
              "type": "uint256"
            }
          ],
          "internalType": "struct Creators.CreatorInfo[]",
          "name": "",
          "type": "tuple[]"
        }
      ],
      "stateMutability": "view",
      "type": "function"
    },
    {
      "inputs": [],
      "name": "owner",
      "outputs": [
        {
          "internalType": "address payable",
          "name": "",
          "type": "address"
        }
      ],
      "stateMutability": "view",
      "type": "function"
    },
    {
      "inputs": [
        {
          "internalType": "string",
          "name": "_message",
          "type": "string"
        },
        {
          "internalType": "uint256",
          "name": "_index",
          "type": "uint256"
        }
      ],
      "name": "sendTip",
      "outputs": [],
      "stateMutability": "payable",
      "type": "function"
    },
    {
      "inputs": [
        {
          "internalType": "string",
          "name": "_username",
          "type": "string"
        },
        {
          "internalType": "string",
          "name": "_ipfsHash",
          "type": "string"
        },
        {
          "internalType": "string",
          "name": "_userbio",
          "type": "string"
        },
        {
          "internalType": "string",
          "name": "_userSubmission",
          "type": "string"
        }
      ],
      "name": "setCreatorDetail",
      "outputs": [],
      "stateMutability": "nonpayable",
      "type": "function"
    }
  ],
  "bytecode": "0x608060405233600260006101000a81548173ffffffffffffffffffffffffffffffffffffffff021916908373ffffffffffffffffffffffffffffffffffffffff160217905550611845806100546000396000f3fe6080604052600436106100555760003560e01c806325e860a51461005a578063746614a8146100835780638da5cb5b146100c0578063c43ad481146100eb578063c580ec0a14610116578063c92d723114610132575b600080fd5b34801561006657600080fd5b50610081600480360381019061007c9190610bf2565b61015d565b005b34801561008f57600080fd5b506100aa60048036038101906100a59190610cff565b6104b0565b6040516100b79190610d80565b60405180910390f35b3480156100cc57600080fd5b506100d56106af565b6040516100e29190610d80565b60405180910390f35b3480156100f757600080fd5b506101006106d5565b60405161010d9190610daa565b60405180910390f35b610130600480360381019061012b9190610dc5565b6106db565b005b34801561013e57600080fd5b506101476107eb565b604051610154919061102a565b60405180910390f35b600084511161016b57600080fd5b600083511161017957600080fd5b600082511161018757600080fd5b600081511161019557600080fd5b60008060001515600360003373ffffffffffffffffffffffffffffffffffffffff1673ffffffffffffffffffffffffffffffffffffffff16815260200190815260200160002060009054906101000a900460ff1615151461022b576040517f08c379a0000000000000000000000000000000000000000000000000000000008152600401610222906110a9565b60405180910390fd5b6000151560048760405161023f9190611105565b908152602001604051809103902060009054906101000a900460ff1615151461029d576040517f08c379a000000000000000000000000000000000000000000000000000000000815260040161029490611168565b60405180910390fd5b60056040518060e001604052806102b46000610a74565b81526020018881526020018781526020013373ffffffffffffffffffffffffffffffffffffffff1681526020018681526020018481526020018381525090806001815401808255809150506001900390600052602060002090600702016000909190919091506000820151816000015560208201518160010190816103399190611394565b50604082015181600201908161034f9190611394565b5060608201518160030160006101000a81548173ffffffffffffffffffffffffffffffffffffffff021916908373ffffffffffffffffffffffffffffffffffffffff16021790555060808201518160040190816103ac9190611394565b5060a0820151816005015560c0820151816006015550506001600360003373ffffffffffffffffffffffffffffffffffffffff1673ffffffffffffffffffffffffffffffffffffffff16815260200190815260200160002060006101000a81548160ff021916908315150217905550600160048760405161042d9190611105565b908152602001604051809103902060006101000a81548160ff0219169083151502179055507f904a93f015c2173bf3eeb75e31f8fa127572bdb0bf83dfeccf73c9eb3e00c91161047d6000610a74565b873388888787604051610496979695949392919061149f565b60405180910390a16104a86000610a82565b505050505050565b600080600584815481106104c7576104c6611523565b5b9060005260206000209060070201905060008160050154905060008260030160009054906101000a900473ffffffffffffffffffffffffffffffffffffffff169050846005878154811061051e5761051d611523565b5b9060005260206000209060070201600501600082825461053e9190611581565b9250508190555081851115610588576040517f08c379a000000000000000000000000000000000000000000000000000000000815260040161057f90611601565b60405180910390fd5b8073ffffffffffffffffffffffffffffffffffffffff163373ffffffffffffffffffffffffffffffffffffffff16146105f6576040517f08c379a00000000000000000000000000000000000000000000000000000000081526004016105ed9061166d565b60405180910390fd5b60008173ffffffffffffffffffffffffffffffffffffffff168660405161061c906116be565b60006040518083038185875af1925050503d8060008114610659576040519150601f19603f3d011682016040523d82523d6000602084013e61065e565b606091505b50509050806106a2576040517f08c379a00000000000000000000000000000000000000000000000000000000081526004016106999061171f565b60405180910390fd5b8194505050505092915050565b600260009054906101000a900473ffffffffffffffffffffffffffffffffffffffff1681565b60015481565b34600582815481106106f0576106ef611523565b5b90600052602060002090600702016005016000828254610710919061173f565b9250508190555060016005828154811061072d5761072c611523565b5b9060005260206000209060070201600601600082825461074d919061173f565b9250508190555060003411610797576040517f08c379a000000000000000000000000000000000000000000000000000000000815260040161078e906117bf565b60405180910390fd5b3373ffffffffffffffffffffffffffffffffffffffff167fe75cefb3072c8ea5ba6f6fc0fabbe37eb2b82d81b84dc257c456f8194641132c42846040516107df9291906117df565b60405180910390a25050565b60606005805480602002602001604051908101604052809291908181526020016000905b82821015610a6b57838290600052602060002090600702016040518060e00160405290816000820154815260200160018201805461084c906111b7565b80601f0160208091040260200160405190810160405280929190818152602001828054610878906111b7565b80156108c55780601f1061089a576101008083540402835291602001916108c5565b820191906000526020600020905b8154815290600101906020018083116108a857829003601f168201915b505050505081526020016002820180546108de906111b7565b80601f016020809104026020016040519081016040528092919081815260200182805461090a906111b7565b80156109575780601f1061092c57610100808354040283529160200191610957565b820191906000526020600020905b81548152906001019060200180831161093a57829003601f168201915b505050505081526020016003820160009054906101000a900473ffffffffffffffffffffffffffffffffffffffff1673ffffffffffffffffffffffffffffffffffffffff1673ffffffffffffffffffffffffffffffffffffffff1681526020016004820180546109c6906111b7565b80601f01602080910402602001604051908101604052809291908181526020018280546109f2906111b7565b8015610a3f5780601f10610a1457610100808354040283529160200191610a3f565b820191906000526020600020905b815481529060010190602001808311610a2257829003601f168201915b50505050508152602001600582015481526020016006820154815250508152602001906001019061080f565b50505050905090565b600081600001549050919050565b6001816000016000828254019250508190555050565b6000604051905090565b600080fd5b600080fd5b600080fd5b600080fd5b6000601f19601f8301169050919050565b7f4e487b7100000000000000000000000000000000000000000000000000000000600052604160045260246000fd5b610aff82610ab6565b810181811067ffffffffffffffff82111715610b1e57610b1d610ac7565b5b80604052505050565b6000610b31610a98565b9050610b3d8282610af6565b919050565b600067ffffffffffffffff821115610b5d57610b5c610ac7565b5b610b6682610ab6565b9050602081019050919050565b82818337600083830152505050565b6000610b95610b9084610b42565b610b27565b905082815260208101848484011115610bb157610bb0610ab1565b5b610bbc848285610b73565b509392505050565b600082601f830112610bd957610bd8610aac565b5b8135610be9848260208601610b82565b91505092915050565b60008060008060808587031215610c0c57610c0b610aa2565b5b600085013567ffffffffffffffff811115610c2a57610c29610aa7565b5b610c3687828801610bc4565b945050602085013567ffffffffffffffff811115610c5757610c56610aa7565b5b610c6387828801610bc4565b935050604085013567ffffffffffffffff811115610c8457610c83610aa7565b5b610c9087828801610bc4565b925050606085013567ffffffffffffffff811115610cb157610cb0610aa7565b5b610cbd87828801610bc4565b91505092959194509250565b6000819050919050565b610cdc81610cc9565b8114610ce757600080fd5b50565b600081359050610cf981610cd3565b92915050565b60008060408385031215610d1657610d15610aa2565b5b6000610d2485828601610cea565b9250506020610d3585828601610cea565b9150509250929050565b600073ffffffffffffffffffffffffffffffffffffffff82169050919050565b6000610d6a82610d3f565b9050919050565b610d7a81610d5f565b82525050565b6000602082019050610d956000830184610d71565b92915050565b610da481610cc9565b82525050565b6000602082019050610dbf6000830184610d9b565b92915050565b60008060408385031215610ddc57610ddb610aa2565b5b600083013567ffffffffffffffff811115610dfa57610df9610aa7565b5b610e0685828601610bc4565b9250506020610e1785828601610cea565b9150509250929050565b600081519050919050565b600082825260208201905092915050565b6000819050602082019050919050565b610e5681610cc9565b82525050565b600081519050919050565b600082825260208201905092915050565b60005b83811015610e96578082015181840152602081019050610e7b565b60008484015250505050565b6000610ead82610e5c565b610eb78185610e67565b9350610ec7818560208601610e78565b610ed081610ab6565b840191505092915050565b610ee481610d5f565b82525050565b600060e083016000830151610f026000860182610e4d565b5060208301518482036020860152610f1a8282610ea2565b91505060408301518482036040860152610f348282610ea2565b9150506060830151610f496060860182610edb565b5060808301518482036080860152610f618282610ea2565b91505060a0830151610f7660a0860182610e4d565b5060c0830151610f8960c0860182610e4d565b508091505092915050565b6000610fa08383610eea565b905092915050565b6000602082019050919050565b6000610fc082610e21565b610fca8185610e2c565b935083602082028501610fdc85610e3d565b8060005b858110156110185784840389528151610ff98582610f94565b945061100483610fa8565b925060208a01995050600181019050610fe0565b50829750879550505050505092915050565b600060208201905081810360008301526110448184610fb5565b905092915050565b600082825260208201905092915050565b7f4164647265737320616c72656164792065786973740000000000000000000000600082015250565b600061109360158361104c565b915061109e8261105d565b602082019050919050565b600060208201905081810360008301526110c281611086565b9050919050565b600081905092915050565b60006110df82610e5c565b6110e981856110c9565b93506110f9818560208601610e78565b80840191505092915050565b600061111182846110d4565b915081905092915050565b7f557365726e616d6520616c726561647920657869737400000000000000000000600082015250565b600061115260168361104c565b915061115d8261111c565b602082019050919050565b6000602082019050818103600083015261118181611145565b9050919050565b7f4e487b7100000000000000000000000000000000000000000000000000000000600052602260045260246000fd5b600060028204905060018216806111cf57607f821691505b6020821081036111e2576111e1611188565b5b50919050565b60008190508160005260206000209050919050565b60006020601f8301049050919050565b600082821b905092915050565b60006008830261124a7fffffffffffffffffffffffffffffffffffffffffffffffffffffffffffffffff8261120d565b611254868361120d565b95508019841693508086168417925050509392505050565b6000819050919050565b600061129161128c61128784610cc9565b61126c565b610cc9565b9050919050565b6000819050919050565b6112ab83611276565b6112bf6112b782611298565b84845461121a565b825550505050565b600090565b6112d46112c7565b6112df8184846112a2565b505050565b5b81811015611303576112f86000826112cc565b6001810190506112e5565b5050565b601f82111561134857611319816111e8565b611322846111fd565b81016020851015611331578190505b61134561133d856111fd565b8301826112e4565b50505b505050565b600082821c905092915050565b600061136b6000198460080261134d565b1980831691505092915050565b6000611384838361135a565b9150826002028217905092915050565b61139d82610e5c565b67ffffffffffffffff8111156113b6576113b5610ac7565b5b6113c082546111b7565b6113cb828285611307565b600060209050601f8311600181146113fe57600084156113ec578287015190505b6113f68582611378565b86555061145e565b601f19841661140c866111e8565b60005b828110156114345784890151825560018201915060208501945060208101905061140f565b86831015611451578489015161144d601f89168261135a565b8355505b6001600288020188555050505b505050505050565b600061147182610e5c565b61147b818561104c565b935061148b818560208601610e78565b61149481610ab6565b840191505092915050565b600060e0820190506114b4600083018a610d9b565b81810360208301526114c68189611466565b90506114d56040830188610d71565b81810360608301526114e78187611466565b905081810360808301526114fb8186611466565b905061150a60a0830185610d9b565b61151760c0830184610d9b565b98975050505050505050565b7f4e487b7100000000000000000000000000000000000000000000000000000000600052603260045260246000fd5b7f4e487b7100000000000000000000000000000000000000000000000000000000600052601160045260246000fd5b600061158c82610cc9565b915061159783610cc9565b92508282039050818111156115af576115ae611552565b5b92915050565b7f496e73756666696369656e742062616c00000000000000000000000000000000600082015250565b60006115eb60108361104c565b91506115f6826115b5565b602082019050919050565b6000602082019050818103600083015261161a816115de565b9050919050565b7f596f7520617265206e6f74207468652063726561746f72000000000000000000600082015250565b600061165760178361104c565b915061166282611621565b602082019050919050565b600060208201905081810360008301526116868161164a565b9050919050565b600081905092915050565b50565b60006116a860008361168d565b91506116b382611698565b600082019050919050565b60006116c98261169b565b9150819050919050565b7f4661696c656420746f2073656e64204574686572000000000000000000000000600082015250565b600061170960148361104c565b9150611714826116d3565b602082019050919050565b60006020820190508181036000830152611738816116fc565b9050919050565b600061174a82610cc9565b915061175583610cc9565b925082820190508082111561176d5761176c611552565b5b92915050565b7f496e73756666696369656e742062616c616e6365210000000000000000000000600082015250565b60006117a960158361104c565b91506117b482611773565b602082019050919050565b600060208201905081810360008301526117d88161179c565b9050919050565b60006040820190506117f46000830185610d9b565b81810360208301526118068184611466565b9050939250505056fea26469706673582212207b56457b6988463dfb0d472c7bc28c1c8a3ef8279bec367b76523422eb03a47f64736f6c63430008110033",
  "linkReferences": {},
  "deployedLinkReferences": {}
}