{"contracts/Protocols.sol":{"Protocols":{"abi":[{"anonymous":false,"inputs":[{"indexed":true,"internalType":"address","name":"from","type":"address"},{"indexed":false,"internalType":"uint256","name":"timestamp","type":"uint256"},{"indexed":false,"internalType":"string","name":"message","type":"string"}],"name":"bountyApplications","type":"event"},{"anonymous":false,"inputs":[{"indexed":false,"internalType":"uint256","name":"id","type":"uint256"},{"indexed":false,"internalType":"string","name":"username","type":"string"},{"indexed":false,"internalType":"string","name":"ipfsHash","type":"string"},{"indexed":false,"internalType":"address payable","name":"walletAddress","type":"address"},{"indexed":false,"internalType":"string","name":"userbio","type":"string"},{"indexed":false,"internalType":"uint256","name":"bountyApplicants","type":"uint256"}],"name":"bountyRequest","type":"event"},{"inputs":[],"name":"creatorCounter","outputs":[{"internalType":"uint256","name":"","type":"uint256"}],"stateMutability":"view","type":"function"},{"inputs":[],"name":"getProtocolsList","outputs":[{"components":[{"internalType":"uint256","name":"id","type":"uint256"},{"internalType":"string","name":"username","type":"string"},{"internalType":"string","name":"ipfsHash","type":"string"},{"internalType":"address payable","name":"walletAddress","type":"address"},{"internalType":"string","name":"userbio","type":"string"},{"internalType":"uint256","name":"bountyApplications","type":"uint256"}],"internalType":"struct Protocols.ProtocolsInfo[]","name":"","type":"tuple[]"}],"stateMutability":"view","type":"function"},{"inputs":[{"internalType":"string","name":"_username","type":"string"},{"internalType":"string","name":"_ipfsHash","type":"string"},{"internalType":"string","name":"_userbio","type":"string"},{"internalType":"string","name":"_bountyRequest","type":"string"}],"name":"setProtocolDetail","outputs":[],"stateMutability":"view","type":"function"}],"devdoc":{"kind":"dev","methods":{},"version":1},"evm":{"bytecode":{"linkReferences":{},"object":"608060405234801561001057600080fd5b50610ae7806100206000396000f3fe608060405234801561001057600080fd5b50600436106100415760003560e01c80634154e39e14610046578063c43ad48114610064578063ee68e03f14610082575b600080fd5b61004e61009e565b60405161005b91906106a9565b60405180910390f35b61006c61031d565b60405161007991906106da565b60405180910390f35b61009c6004803603810190610097919061083e565b610323565b005b60606004805480602002602001604051908101604052809291908181526020016000905b8282101561031457838290600052602060002090600602016040518060c0016040529081600082015481526020016001820180546100ff90610944565b80601f016020809104026020016040519081016040528092919081815260200182805461012b90610944565b80156101785780601f1061014d57610100808354040283529160200191610178565b820191906000526020600020905b81548152906001019060200180831161015b57829003601f168201915b5050505050815260200160028201805461019190610944565b80601f01602080910402602001604051908101604052809291908181526020018280546101bd90610944565b801561020a5780601f106101df5761010080835404028352916020019161020a565b820191906000526020600020905b8154815290600101906020018083116101ed57829003601f168201915b505050505081526020016003820160009054906101000a900473ffffffffffffffffffffffffffffffffffffffff1673ffffffffffffffffffffffffffffffffffffffff1673ffffffffffffffffffffffffffffffffffffffff16815260200160048201805461027990610944565b80601f01602080910402602001604051908101604052809291908181526020018280546102a590610944565b80156102f25780601f106102c7576101008083540402835291602001916102f2565b820191906000526020600020905b8154815290600101906020018083116102d557829003601f168201915b50505050508152602001600582015481525050815260200190600101906100c2565b50505050905090565b60015481565b600084511161033157600080fd5b600083511161033f57600080fd5b600082511161034d57600080fd5b600081511161035b57600080fd5b60001515600260003373ffffffffffffffffffffffffffffffffffffffff1673ffffffffffffffffffffffffffffffffffffffff16815260200190815260200160002060009054906101000a900460ff161515146103ee576040517f08c379a00000000000000000000000000000000000000000000000000000000081526004016103e5906109d2565b60405180910390fd5b600015156003856040516104029190610a2e565b908152602001604051809103902060009054906101000a900460ff16151514610460576040517f08c379a000000000000000000000000000000000000000000000000000000000815260040161045790610a91565b60405180910390fd5b50505050565b600081519050919050565b600082825260208201905092915050565b6000819050602082019050919050565b6000819050919050565b6104a581610492565b82525050565b600081519050919050565b600082825260208201905092915050565b60005b838110156104e55780820151818401526020810190506104ca565b60008484015250505050565b6000601f19601f8301169050919050565b600061050d826104ab565b61051781856104b6565b93506105278185602086016104c7565b610530816104f1565b840191505092915050565b600073ffffffffffffffffffffffffffffffffffffffff82169050919050565b60006105668261053b565b9050919050565b6105768161055b565b82525050565b600060c083016000830151610594600086018261049c565b50602083015184820360208601526105ac8282610502565b915050604083015184820360408601526105c68282610502565b91505060608301516105db606086018261056d565b50608083015184820360808601526105f38282610502565b91505060a083015161060860a086018261049c565b508091505092915050565b600061061f838361057c565b905092915050565b6000602082019050919050565b600061063f82610466565b6106498185610471565b93508360208202850161065b85610482565b8060005b8581101561069757848403895281516106788582610613565b945061068383610627565b925060208a0199505060018101905061065f565b50829750879550505050505092915050565b600060208201905081810360008301526106c38184610634565b905092915050565b6106d481610492565b82525050565b60006020820190506106ef60008301846106cb565b92915050565b6000604051905090565b600080fd5b600080fd5b600080fd5b600080fd5b7f4e487b7100000000000000000000000000000000000000000000000000000000600052604160045260246000fd5b61074b826104f1565b810181811067ffffffffffffffff8211171561076a57610769610713565b5b80604052505050565b600061077d6106f5565b90506107898282610742565b919050565b600067ffffffffffffffff8211156107a9576107a8610713565b5b6107b2826104f1565b9050602081019050919050565b82818337600083830152505050565b60006107e16107dc8461078e565b610773565b9050828152602081018484840111156107fd576107fc61070e565b5b6108088482856107bf565b509392505050565b600082601f83011261082557610824610709565b5b81356108358482602086016107ce565b91505092915050565b60008060008060808587031215610858576108576106ff565b5b600085013567ffffffffffffffff81111561087657610875610704565b5b61088287828801610810565b945050602085013567ffffffffffffffff8111156108a3576108a2610704565b5b6108af87828801610810565b935050604085013567ffffffffffffffff8111156108d0576108cf610704565b5b6108dc87828801610810565b925050606085013567ffffffffffffffff8111156108fd576108fc610704565b5b61090987828801610810565b91505092959194509250565b7f4e487b7100000000000000000000000000000000000000000000000000000000600052602260045260246000fd5b6000600282049050600182168061095c57607f821691505b60208210810361096f5761096e610915565b5b50919050565b600082825260208201905092915050565b7f4164647265737320616c72656164792065786973740000000000000000000000600082015250565b60006109bc601583610975565b91506109c782610986565b602082019050919050565b600060208201905081810360008301526109eb816109af565b9050919050565b600081905092915050565b6000610a08826104ab565b610a1281856109f2565b9350610a228185602086016104c7565b80840191505092915050565b6000610a3a82846109fd565b915081905092915050565b7f557365726e616d6520616c726561647920657869737400000000000000000000600082015250565b6000610a7b601683610975565b9150610a8682610a45565b602082019050919050565b60006020820190508181036000830152610aaa81610a6e565b905091905056fea2646970667358221220eca3a51cb550ad035e949680a4f0a9c192b2fa8a4b25ed509fff3dc63d8817de64736f6c63430008110033","opcodes":"PUSH1 0x80 PUSH1 0x40 MSTORE CALLVALUE DUP1 ISZERO PUSH2 0x10 JUMPI PUSH1 0x0 DUP1 REVERT JUMPDEST POP PUSH2 0xAE7 DUP1 PUSH2 0x20 PUSH1 0x0 CODECOPY PUSH1 0x0 RETURN INVALID PUSH1 0x80 PUSH1 0x40 MSTORE CALLVALUE DUP1 ISZERO PUSH2 0x10 JUMPI PUSH1 0x0 DUP1 REVERT JUMPDEST POP PUSH1 0x4 CALLDATASIZE LT PUSH2 0x41 JUMPI PUSH1 0x0 CALLDATALOAD PUSH1 0xE0 SHR DUP1 PUSH4 0x4154E39E EQ PUSH2 0x46 JUMPI DUP1 PUSH4 0xC43AD481 EQ PUSH2 0x64 JUMPI DUP1 PUSH4 0xEE68E03F EQ PUSH2 0x82 JUMPI JUMPDEST PUSH1 0x0 DUP1 REVERT JUMPDEST PUSH2 0x4E PUSH2 0x9E JUMP JUMPDEST PUSH1 0x40 MLOAD PUSH2 0x5B SWAP2 SWAP1 PUSH2 0x6A9 JUMP JUMPDEST PUSH1 0x40 MLOAD DUP1 SWAP2 SUB SWAP1 RETURN JUMPDEST PUSH2 0x6C PUSH2 0x31D JUMP JUMPDEST PUSH1 0x40 MLOAD PUSH2 0x79 SWAP2 SWAP1 PUSH2 0x6DA JUMP JUMPDEST PUSH1 0x40 MLOAD DUP1 SWAP2 SUB SWAP1 RETURN JUMPDEST PUSH2 0x9C PUSH1 0x4 DUP1 CALLDATASIZE SUB DUP2 ADD SWAP1 PUSH2 0x97 SWAP2 SWAP1 PUSH2 0x83E JUMP JUMPDEST PUSH2 0x323 JUMP JUMPDEST STOP JUMPDEST PUSH1 0x60 PUSH1 0x4 DUP1 SLOAD DUP1 PUSH1 0x20 MUL PUSH1 0x20 ADD PUSH1 0x40 MLOAD SWAP1 DUP2 ADD PUSH1 0x40 MSTORE DUP1 SWAP3 SWAP2 SWAP1 DUP2 DUP2 MSTORE PUSH1 0x20 ADD PUSH1 0x0 SWAP1 JUMPDEST DUP3 DUP3 LT ISZERO PUSH2 0x314 JUMPI DUP4 DUP3 SWAP1 PUSH1 0x0 MSTORE PUSH1 0x20 PUSH1 0x0 KECCAK256 SWAP1 PUSH1 0x6 MUL ADD PUSH1 0x40 MLOAD DUP1 PUSH1 0xC0 ADD PUSH1 0x40 MSTORE SWAP1 DUP2 PUSH1 0x0 DUP3 ADD SLOAD DUP2 MSTORE PUSH1 0x20 ADD PUSH1 0x1 DUP3 ADD DUP1 SLOAD PUSH2 0xFF SWAP1 PUSH2 0x944 JUMP JUMPDEST DUP1 PUSH1 0x1F ADD PUSH1 0x20 DUP1 SWAP2 DIV MUL PUSH1 0x20 ADD PUSH1 0x40 MLOAD SWAP1 DUP2 ADD PUSH1 0x40 MSTORE DUP1 SWAP3 SWAP2 SWAP1 DUP2 DUP2 MSTORE PUSH1 0x20 ADD DUP3 DUP1 SLOAD PUSH2 0x12B SWAP1 PUSH2 0x944 JUMP JUMPDEST DUP1 ISZERO PUSH2 0x178 JUMPI DUP1 PUSH1 0x1F LT PUSH2 0x14D JUMPI PUSH2 0x100 DUP1 DUP4 SLOAD DIV MUL DUP4 MSTORE SWAP2 PUSH1 0x20 ADD SWAP2 PUSH2 0x178 JUMP JUMPDEST DUP3 ADD SWAP2 SWAP1 PUSH1 0x0 MSTORE PUSH1 0x20 PUSH1 0x0 KECCAK256 SWAP1 JUMPDEST DUP2 SLOAD DUP2 MSTORE SWAP1 PUSH1 0x1 ADD SWAP1 PUSH1 0x20 ADD DUP1 DUP4 GT PUSH2 0x15B JUMPI DUP3 SWAP1 SUB PUSH1 0x1F AND DUP3 ADD SWAP2 JUMPDEST POP POP POP POP POP DUP2 MSTORE PUSH1 0x20 ADD PUSH1 0x2 DUP3 ADD DUP1 SLOAD PUSH2 0x191 SWAP1 PUSH2 0x944 JUMP JUMPDEST DUP1 PUSH1 0x1F ADD PUSH1 0x20 DUP1 SWAP2 DIV MUL PUSH1 0x20 ADD PUSH1 0x40 MLOAD SWAP1 DUP2 ADD PUSH1 0x40 MSTORE DUP1 SWAP3 SWAP2 SWAP1 DUP2 DUP2 MSTORE PUSH1 0x20 ADD DUP3 DUP1 SLOAD PUSH2 0x1BD SWAP1 PUSH2 0x944 JUMP JUMPDEST DUP1 ISZERO PUSH2 0x20A JUMPI DUP1 PUSH1 0x1F LT PUSH2 0x1DF JUMPI PUSH2 0x100 DUP1 DUP4 SLOAD DIV MUL DUP4 MSTORE SWAP2 PUSH1 0x20 ADD SWAP2 PUSH2 0x20A JUMP JUMPDEST DUP3 ADD SWAP2 SWAP1 PUSH1 0x0 MSTORE PUSH1 0x20 PUSH1 0x0 KECCAK256 SWAP1 JUMPDEST DUP2 SLOAD DUP2 MSTORE SWAP1 PUSH1 0x1 ADD SWAP1 PUSH1 0x20 ADD DUP1 DUP4 GT PUSH2 0x1ED JUMPI DUP3 SWAP1 SUB PUSH1 0x1F AND DUP3 ADD SWAP2 JUMPDEST POP POP POP POP POP DUP2 MSTORE PUSH1 0x20 ADD PUSH1 0x3 DUP3 ADD PUSH1 0x0 SWAP1 SLOAD SWAP1 PUSH2 0x100 EXP SWAP1 DIV PUSH20 0xFFFFFFFFFFFFFFFFFFFFFFFFFFFFFFFFFFFFFFFF AND PUSH20 0xFFFFFFFFFFFFFFFFFFFFFFFFFFFFFFFFFFFFFFFF AND PUSH20 0xFFFFFFFFFFFFFFFFFFFFFFFFFFFFFFFFFFFFFFFF AND DUP2 MSTORE PUSH1 0x20 ADD PUSH1 0x4 DUP3 ADD DUP1 SLOAD PUSH2 0x279 SWAP1 PUSH2 0x944 JUMP JUMPDEST DUP1 PUSH1 0x1F ADD PUSH1 0x20 DUP1 SWAP2 DIV MUL PUSH1 0x20 ADD PUSH1 0x40 MLOAD SWAP1 DUP2 ADD PUSH1 0x40 MSTORE DUP1 SWAP3 SWAP2 SWAP1 DUP2 DUP2 MSTORE PUSH1 0x20 ADD DUP3 DUP1 SLOAD PUSH2 0x2A5 SWAP1 PUSH2 0x944 JUMP JUMPDEST DUP1 ISZERO PUSH2 0x2F2 JUMPI DUP1 PUSH1 0x1F LT PUSH2 0x2C7 JUMPI PUSH2 0x100 DUP1 DUP4 SLOAD DIV MUL DUP4 MSTORE SWAP2 PUSH1 0x20 ADD SWAP2 PUSH2 0x2F2 JUMP JUMPDEST DUP3 ADD SWAP2 SWAP1 PUSH1 0x0 MSTORE PUSH1 0x20 PUSH1 0x0 KECCAK256 SWAP1 JUMPDEST DUP2 SLOAD DUP2 MSTORE SWAP1 PUSH1 0x1 ADD SWAP1 PUSH1 0x20 ADD DUP1 DUP4 GT PUSH2 0x2D5 JUMPI DUP3 SWAP1 SUB PUSH1 0x1F AND DUP3 ADD SWAP2 JUMPDEST POP POP POP POP POP DUP2 MSTORE PUSH1 0x20 ADD PUSH1 0x5 DUP3 ADD SLOAD DUP2 MSTORE POP POP DUP2 MSTORE PUSH1 0x20 ADD SWAP1 PUSH1 0x1 ADD SWAP1 PUSH2 0xC2 JUMP JUMPDEST POP POP POP POP SWAP1 POP SWAP1 JUMP JUMPDEST PUSH1 0x1 SLOAD DUP2 JUMP JUMPDEST PUSH1 0x0 DUP5 MLOAD GT PUSH2 0x331 JUMPI PUSH1 0x0 DUP1 REVERT JUMPDEST PUSH1 0x0 DUP4 MLOAD GT PUSH2 0x33F JUMPI PUSH1 0x0 DUP1 REVERT JUMPDEST PUSH1 0x0 DUP3 MLOAD GT PUSH2 0x34D JUMPI PUSH1 0x0 DUP1 REVERT JUMPDEST PUSH1 0x0 DUP2 MLOAD GT PUSH2 0x35B JUMPI PUSH1 0x0 DUP1 REVERT JUMPDEST PUSH1 0x0 ISZERO ISZERO PUSH1 0x2 PUSH1 0x0 CALLER PUSH20 0xFFFFFFFFFFFFFFFFFFFFFFFFFFFFFFFFFFFFFFFF AND PUSH20 0xFFFFFFFFFFFFFFFFFFFFFFFFFFFFFFFFFFFFFFFF AND DUP2 MSTORE PUSH1 0x20 ADD SWAP1 DUP2 MSTORE PUSH1 0x20 ADD PUSH1 0x0 KECCAK256 PUSH1 0x0 SWAP1 SLOAD SWAP1 PUSH2 0x100 EXP SWAP1 DIV PUSH1 0xFF AND ISZERO ISZERO EQ PUSH2 0x3EE JUMPI PUSH1 0x40 MLOAD PUSH32 0x8C379A000000000000000000000000000000000000000000000000000000000 DUP2 MSTORE PUSH1 0x4 ADD PUSH2 0x3E5 SWAP1 PUSH2 0x9D2 JUMP JUMPDEST PUSH1 0x40 MLOAD DUP1 SWAP2 SUB SWAP1 REVERT JUMPDEST PUSH1 0x0 ISZERO ISZERO PUSH1 0x3 DUP6 PUSH1 0x40 MLOAD PUSH2 0x402 SWAP2 SWAP1 PUSH2 0xA2E JUMP JUMPDEST SWAP1 DUP2 MSTORE PUSH1 0x20 ADD PUSH1 0x40 MLOAD DUP1 SWAP2 SUB SWAP1 KECCAK256 PUSH1 0x0 SWAP1 SLOAD SWAP1 PUSH2 0x100 EXP SWAP1 DIV PUSH1 0xFF AND ISZERO ISZERO EQ PUSH2 0x460 JUMPI PUSH1 0x40 MLOAD PUSH32 0x8C379A000000000000000000000000000000000000000000000000000000000 DUP2 MSTORE PUSH1 0x4 ADD PUSH2 0x457 SWAP1 PUSH2 0xA91 JUMP JUMPDEST PUSH1 0x40 MLOAD DUP1 SWAP2 SUB SWAP1 REVERT JUMPDEST POP POP POP POP JUMP JUMPDEST PUSH1 0x0 DUP2 MLOAD SWAP1 POP SWAP2 SWAP1 POP JUMP JUMPDEST PUSH1 0x0 DUP3 DUP3 MSTORE PUSH1 0x20 DUP3 ADD SWAP1 POP SWAP3 SWAP2 POP POP JUMP JUMPDEST PUSH1 0x0 DUP2 SWAP1 POP PUSH1 0x20 DUP3 ADD SWAP1 POP SWAP2 SWAP1 POP JUMP JUMPDEST PUSH1 0x0 DUP2 SWAP1 POP SWAP2 SWAP1 POP JUMP JUMPDEST PUSH2 0x4A5 DUP2 PUSH2 0x492 JUMP JUMPDEST DUP3 MSTORE POP POP JUMP JUMPDEST PUSH1 0x0 DUP2 MLOAD SWAP1 POP SWAP2 SWAP1 POP JUMP JUMPDEST PUSH1 0x0 DUP3 DUP3 MSTORE PUSH1 0x20 DUP3 ADD SWAP1 POP SWAP3 SWAP2 POP POP JUMP JUMPDEST PUSH1 0x0 JUMPDEST DUP4 DUP2 LT ISZERO PUSH2 0x4E5 JUMPI DUP1 DUP3 ADD MLOAD DUP2 DUP5 ADD MSTORE PUSH1 0x20 DUP2 ADD SWAP1 POP PUSH2 0x4CA JUMP JUMPDEST PUSH1 0x0 DUP5 DUP5 ADD MSTORE POP POP POP POP JUMP JUMPDEST PUSH1 0x0 PUSH1 0x1F NOT PUSH1 0x1F DUP4 ADD AND SWAP1 POP SWAP2 SWAP1 POP JUMP JUMPDEST PUSH1 0x0 PUSH2 0x50D DUP3 PUSH2 0x4AB JUMP JUMPDEST PUSH2 0x517 DUP2 DUP6 PUSH2 0x4B6 JUMP JUMPDEST SWAP4 POP PUSH2 0x527 DUP2 DUP6 PUSH1 0x20 DUP7 ADD PUSH2 0x4C7 JUMP JUMPDEST PUSH2 0x530 DUP2 PUSH2 0x4F1 JUMP JUMPDEST DUP5 ADD SWAP2 POP POP SWAP3 SWAP2 POP POP JUMP JUMPDEST PUSH1 0x0 PUSH20 0xFFFFFFFFFFFFFFFFFFFFFFFFFFFFFFFFFFFFFFFF DUP3 AND SWAP1 POP SWAP2 SWAP1 POP JUMP JUMPDEST PUSH1 0x0 PUSH2 0x566 DUP3 PUSH2 0x53B JUMP JUMPDEST SWAP1 POP SWAP2 SWAP1 POP JUMP JUMPDEST PUSH2 0x576 DUP2 PUSH2 0x55B JUMP JUMPDEST DUP3 MSTORE POP POP JUMP JUMPDEST PUSH1 0x0 PUSH1 0xC0 DUP4 ADD PUSH1 0x0 DUP4 ADD MLOAD PUSH2 0x594 PUSH1 0x0 DUP7 ADD DUP3 PUSH2 0x49C JUMP JUMPDEST POP PUSH1 0x20 DUP4 ADD MLOAD DUP5 DUP3 SUB PUSH1 0x20 DUP7 ADD MSTORE PUSH2 0x5AC DUP3 DUP3 PUSH2 0x502 JUMP JUMPDEST SWAP2 POP POP PUSH1 0x40 DUP4 ADD MLOAD DUP5 DUP3 SUB PUSH1 0x40 DUP7 ADD MSTORE PUSH2 0x5C6 DUP3 DUP3 PUSH2 0x502 JUMP JUMPDEST SWAP2 POP POP PUSH1 0x60 DUP4 ADD MLOAD PUSH2 0x5DB PUSH1 0x60 DUP7 ADD DUP3 PUSH2 0x56D JUMP JUMPDEST POP PUSH1 0x80 DUP4 ADD MLOAD DUP5 DUP3 SUB PUSH1 0x80 DUP7 ADD MSTORE PUSH2 0x5F3 DUP3 DUP3 PUSH2 0x502 JUMP JUMPDEST SWAP2 POP POP PUSH1 0xA0 DUP4 ADD MLOAD PUSH2 0x608 PUSH1 0xA0 DUP7 ADD DUP3 PUSH2 0x49C JUMP JUMPDEST POP DUP1 SWAP2 POP POP SWAP3 SWAP2 POP POP JUMP JUMPDEST PUSH1 0x0 PUSH2 0x61F DUP4 DUP4 PUSH2 0x57C JUMP JUMPDEST SWAP1 POP SWAP3 SWAP2 POP POP JUMP JUMPDEST PUSH1 0x0 PUSH1 0x20 DUP3 ADD SWAP1 POP SWAP2 SWAP1 POP JUMP JUMPDEST PUSH1 0x0 PUSH2 0x63F DUP3 PUSH2 0x466 JUMP JUMPDEST PUSH2 0x649 DUP2 DUP6 PUSH2 0x471 JUMP JUMPDEST SWAP4 POP DUP4 PUSH1 0x20 DUP3 MUL DUP6 ADD PUSH2 0x65B DUP6 PUSH2 0x482 JUMP JUMPDEST DUP1 PUSH1 0x0 JUMPDEST DUP6 DUP2 LT ISZERO PUSH2 0x697 JUMPI DUP5 DUP5 SUB DUP10 MSTORE DUP2 MLOAD PUSH2 0x678 DUP6 DUP3 PUSH2 0x613 JUMP JUMPDEST SWAP5 POP PUSH2 0x683 DUP4 PUSH2 0x627 JUMP JUMPDEST SWAP3 POP PUSH1 0x20 DUP11 ADD SWAP10 POP POP PUSH1 0x1 DUP2 ADD SWAP1 POP PUSH2 0x65F JUMP JUMPDEST POP DUP3 SWAP8 POP DUP8 SWAP6 POP POP POP POP POP POP SWAP3 SWAP2 POP POP JUMP JUMPDEST PUSH1 0x0 PUSH1 0x20 DUP3 ADD SWAP1 POP DUP2 DUP2 SUB PUSH1 0x0 DUP4 ADD MSTORE PUSH2 0x6C3 DUP2 DUP5 PUSH2 0x634 JUMP JUMPDEST SWAP1 POP SWAP3 SWAP2 POP POP JUMP JUMPDEST PUSH2 0x6D4 DUP2 PUSH2 0x492 JUMP JUMPDEST DUP3 MSTORE POP POP JUMP JUMPDEST PUSH1 0x0 PUSH1 0x20 DUP3 ADD SWAP1 POP PUSH2 0x6EF PUSH1 0x0 DUP4 ADD DUP5 PUSH2 0x6CB JUMP JUMPDEST SWAP3 SWAP2 POP POP JUMP JUMPDEST PUSH1 0x0 PUSH1 0x40 MLOAD SWAP1 POP SWAP1 JUMP JUMPDEST PUSH1 0x0 DUP1 REVERT JUMPDEST PUSH1 0x0 DUP1 REVERT JUMPDEST PUSH1 0x0 DUP1 REVERT JUMPDEST PUSH1 0x0 DUP1 REVERT JUMPDEST PUSH32 0x4E487B7100000000000000000000000000000000000000000000000000000000 PUSH1 0x0 MSTORE PUSH1 0x41 PUSH1 0x4 MSTORE PUSH1 0x24 PUSH1 0x0 REVERT JUMPDEST PUSH2 0x74B DUP3 PUSH2 0x4F1 JUMP JUMPDEST DUP2 ADD DUP2 DUP2 LT PUSH8 0xFFFFFFFFFFFFFFFF DUP3 GT OR ISZERO PUSH2 0x76A JUMPI PUSH2 0x769 PUSH2 0x713 JUMP JUMPDEST JUMPDEST DUP1 PUSH1 0x40 MSTORE POP POP POP JUMP JUMPDEST PUSH1 0x0 PUSH2 0x77D PUSH2 0x6F5 JUMP JUMPDEST SWAP1 POP PUSH2 0x789 DUP3 DUP3 PUSH2 0x742 JUMP JUMPDEST SWAP2 SWAP1 POP JUMP JUMPDEST PUSH1 0x0 PUSH8 0xFFFFFFFFFFFFFFFF DUP3 GT ISZERO PUSH2 0x7A9 JUMPI PUSH2 0x7A8 PUSH2 0x713 JUMP JUMPDEST JUMPDEST PUSH2 0x7B2 DUP3 PUSH2 0x4F1 JUMP JUMPDEST SWAP1 POP PUSH1 0x20 DUP2 ADD SWAP1 POP SWAP2 SWAP1 POP JUMP JUMPDEST DUP3 DUP2 DUP4 CALLDATACOPY PUSH1 0x0 DUP4 DUP4 ADD MSTORE POP POP POP JUMP JUMPDEST PUSH1 0x0 PUSH2 0x7E1 PUSH2 0x7DC DUP5 PUSH2 0x78E JUMP JUMPDEST PUSH2 0x773 JUMP JUMPDEST SWAP1 POP DUP3 DUP2 MSTORE PUSH1 0x20 DUP2 ADD DUP5 DUP5 DUP5 ADD GT ISZERO PUSH2 0x7FD JUMPI PUSH2 0x7FC PUSH2 0x70E JUMP JUMPDEST JUMPDEST PUSH2 0x808 DUP5 DUP3 DUP6 PUSH2 0x7BF JUMP JUMPDEST POP SWAP4 SWAP3 POP POP POP JUMP JUMPDEST PUSH1 0x0 DUP3 PUSH1 0x1F DUP4 ADD SLT PUSH2 0x825 JUMPI PUSH2 0x824 PUSH2 0x709 JUMP JUMPDEST JUMPDEST DUP2 CALLDATALOAD PUSH2 0x835 DUP5 DUP3 PUSH1 0x20 DUP7 ADD PUSH2 0x7CE JUMP JUMPDEST SWAP2 POP POP SWAP3 SWAP2 POP POP JUMP JUMPDEST PUSH1 0x0 DUP1 PUSH1 0x0 DUP1 PUSH1 0x80 DUP6 DUP8 SUB SLT ISZERO PUSH2 0x858 JUMPI PUSH2 0x857 PUSH2 0x6FF JUMP JUMPDEST JUMPDEST PUSH1 0x0 DUP6 ADD CALLDATALOAD PUSH8 0xFFFFFFFFFFFFFFFF DUP2 GT ISZERO PUSH2 0x876 JUMPI PUSH2 0x875 PUSH2 0x704 JUMP JUMPDEST JUMPDEST PUSH2 0x882 DUP8 DUP3 DUP9 ADD PUSH2 0x810 JUMP JUMPDEST SWAP5 POP POP PUSH1 0x20 DUP6 ADD CALLDATALOAD PUSH8 0xFFFFFFFFFFFFFFFF DUP2 GT ISZERO PUSH2 0x8A3 JUMPI PUSH2 0x8A2 PUSH2 0x704 JUMP JUMPDEST JUMPDEST PUSH2 0x8AF DUP8 DUP3 DUP9 ADD PUSH2 0x810 JUMP JUMPDEST SWAP4 POP POP PUSH1 0x40 DUP6 ADD CALLDATALOAD PUSH8 0xFFFFFFFFFFFFFFFF DUP2 GT ISZERO PUSH2 0x8D0 JUMPI PUSH2 0x8CF PUSH2 0x704 JUMP JUMPDEST JUMPDEST PUSH2 0x8DC DUP8 DUP3 DUP9 ADD PUSH2 0x810 JUMP JUMPDEST SWAP3 POP POP PUSH1 0x60 DUP6 ADD CALLDATALOAD PUSH8 0xFFFFFFFFFFFFFFFF DUP2 GT ISZERO PUSH2 0x8FD JUMPI PUSH2 0x8FC PUSH2 0x704 JUMP JUMPDEST JUMPDEST PUSH2 0x909 DUP8 DUP3 DUP9 ADD PUSH2 0x810 JUMP JUMPDEST SWAP2 POP POP SWAP3 SWAP6 SWAP2 SWAP5 POP SWAP3 POP JUMP JUMPDEST PUSH32 0x4E487B7100000000000000000000000000000000000000000000000000000000 PUSH1 0x0 MSTORE PUSH1 0x22 PUSH1 0x4 MSTORE PUSH1 0x24 PUSH1 0x0 REVERT JUMPDEST PUSH1 0x0 PUSH1 0x2 DUP3 DIV SWAP1 POP PUSH1 0x1 DUP3 AND DUP1 PUSH2 0x95C JUMPI PUSH1 0x7F DUP3 AND SWAP2 POP JUMPDEST PUSH1 0x20 DUP3 LT DUP2 SUB PUSH2 0x96F JUMPI PUSH2 0x96E PUSH2 0x915 JUMP JUMPDEST JUMPDEST POP SWAP2 SWAP1 POP JUMP JUMPDEST PUSH1 0x0 DUP3 DUP3 MSTORE PUSH1 0x20 DUP3 ADD SWAP1 POP SWAP3 SWAP2 POP POP JUMP JUMPDEST PUSH32 0x4164647265737320616C72656164792065786973740000000000000000000000 PUSH1 0x0 DUP3 ADD MSTORE POP JUMP JUMPDEST PUSH1 0x0 PUSH2 0x9BC PUSH1 0x15 DUP4 PUSH2 0x975 JUMP JUMPDEST SWAP2 POP PUSH2 0x9C7 DUP3 PUSH2 0x986 JUMP JUMPDEST PUSH1 0x20 DUP3 ADD SWAP1 POP SWAP2 SWAP1 POP JUMP JUMPDEST PUSH1 0x0 PUSH1 0x20 DUP3 ADD SWAP1 POP DUP2 DUP2 SUB PUSH1 0x0 DUP4 ADD MSTORE PUSH2 0x9EB DUP2 PUSH2 0x9AF JUMP JUMPDEST SWAP1 POP SWAP2 SWAP1 POP JUMP JUMPDEST PUSH1 0x0 DUP2 SWAP1 POP SWAP3 SWAP2 POP POP JUMP JUMPDEST PUSH1 0x0 PUSH2 0xA08 DUP3 PUSH2 0x4AB JUMP JUMPDEST PUSH2 0xA12 DUP2 DUP6 PUSH2 0x9F2 JUMP JUMPDEST SWAP4 POP PUSH2 0xA22 DUP2 DUP6 PUSH1 0x20 DUP7 ADD PUSH2 0x4C7 JUMP JUMPDEST DUP1 DUP5 ADD SWAP2 POP POP SWAP3 SWAP2 POP POP JUMP JUMPDEST PUSH1 0x0 PUSH2 0xA3A DUP3 DUP5 PUSH2 0x9FD JUMP JUMPDEST SWAP2 POP DUP2 SWAP1 POP SWAP3 SWAP2 POP POP JUMP JUMPDEST PUSH32 0x557365726E616D6520616C726561647920657869737400000000000000000000 PUSH1 0x0 DUP3 ADD MSTORE POP JUMP JUMPDEST PUSH1 0x0 PUSH2 0xA7B PUSH1 0x16 DUP4 PUSH2 0x975 JUMP JUMPDEST SWAP2 POP PUSH2 0xA86 DUP3 PUSH2 0xA45 JUMP JUMPDEST PUSH1 0x20 DUP3 ADD SWAP1 POP SWAP2 SWAP1 POP JUMP JUMPDEST PUSH1 0x0 PUSH1 0x20 DUP3 ADD SWAP1 POP DUP2 DUP2 SUB PUSH1 0x0 DUP4 ADD MSTORE PUSH2 0xAAA DUP2 PUSH2 0xA6E JUMP JUMPDEST SWAP1 POP SWAP2 SWAP1 POP JUMP INVALID LOG2 PUSH5 0x6970667358 0x22 SLT KECCAK256 0xEC LOG3 0xA5 SHR 0xB5 POP 0xAD SUB 0x5E SWAP5 SWAP7 DUP1 LOG4 CREATE 0xA9 0xC1 SWAP3 0xB2 STATICCALL DUP11 0x4B 0x25 0xED POP SWAP16 SELFDESTRUCT RETURNDATASIZE 0xC6 RETURNDATASIZE DUP9 OR 0xDE PUSH5 0x736F6C6343 STOP ADDMOD GT STOP CALLER "},"gasEstimates":{"creation":{"codeDepositCost":"558200","executionCost":"594","totalCost":"558794"},"external":{"creatorCounter()":"2429","getProtocolsList()":"infinite","setProtocolDetail(string,string,string,string)":"infinite"}},"methodIdentifiers":{"creatorCounter()":"c43ad481","getProtocolsList()":"4154e39e","setProtocolDetail(string,string,string,string)":"ee68e03f"}},"storageLayout":{"storage":[{"astId":409,"contract":"contracts/Protocols.sol:Protocols","label":"_creatorIds","offset":0,"slot":"0","type":"t_struct(Counter)5_storage"},{"astId":411,"contract":"contracts/Protocols.sol:Protocols","label":"creatorCounter","offset":0,"slot":"1","type":"t_uint256"},{"astId":450,"contract":"contracts/Protocols.sol:Protocols","label":"isAddressExist","offset":0,"slot":"2","type":"t_mapping(t_address,t_bool)"},{"astId":454,"contract":"contracts/Protocols.sol:Protocols","label":"isUsernameExist","offset":0,"slot":"3","type":"t_mapping(t_string_memory_ptr,t_bool)"},{"astId":458,"contract":"contracts/Protocols.sol:Protocols","label":"ProtocolsList","offset":0,"slot":"4","type":"t_array(t_struct(ProtocolsInfo)424_storage)dyn_storage"}],"types":{"t_address":{"encoding":"inplace","label":"address","numberOfBytes":"20"},"t_address_payable":{"encoding":"inplace","label":"address payable","numberOfBytes":"20"},"t_array(t_struct(ProtocolsInfo)424_storage)dyn_storage":{"base":"t_struct(ProtocolsInfo)424_storage","encoding":"dynamic_array","label":"struct Protocols.ProtocolsInfo[]","numberOfBytes":"32"},"t_bool":{"encoding":"inplace","label":"bool","numberOfBytes":"1"},"t_mapping(t_address,t_bool)":{"encoding":"mapping","key":"t_address","label":"mapping(address => bool)","numberOfBytes":"32","value":"t_bool"},"t_mapping(t_string_memory_ptr,t_bool)":{"encoding":"mapping","key":"t_string_memory_ptr","label":"mapping(string => bool)","numberOfBytes":"32","value":"t_bool"},"t_string_memory_ptr":{"encoding":"bytes","label":"string","numberOfBytes":"32"},"t_string_storage":{"encoding":"bytes","label":"string","numberOfBytes":"32"},"t_struct(Counter)5_storage":{"encoding":"inplace","label":"struct Counters.Counter","members":[{"astId":4,"contract":"contracts/Protocols.sol:Protocols","label":"_value","offset":0,"slot":"0","type":"t_uint256"}],"numberOfBytes":"32"},"t_struct(ProtocolsInfo)424_storage":{"encoding":"inplace","label":"struct Protocols.ProtocolsInfo","members":[{"astId":413,"contract":"contracts/Protocols.sol:Protocols","label":"id","offset":0,"slot":"0","type":"t_uint256"},{"astId":415,"contract":"contracts/Protocols.sol:Protocols","label":"username","offset":0,"slot":"1","type":"t_string_storage"},{"astId":417,"contract":"contracts/Protocols.sol:Protocols","label":"ipfsHash","offset":0,"slot":"2","type":"t_string_storage"},{"astId":419,"contract":"contracts/Protocols.sol:Protocols","label":"walletAddress","offset":0,"slot":"3","type":"t_address_payable"},{"astId":421,"contract":"contracts/Protocols.sol:Protocols","label":"userbio","offset":0,"slot":"4","type":"t_string_storage"},{"astId":423,"contract":"contracts/Protocols.sol:Protocols","label":"bountyApplications","offset":0,"slot":"5","type":"t_uint256"}],"numberOfBytes":"192"},"t_uint256":{"encoding":"inplace","label":"uint256","numberOfBytes":"32"}}},"userdoc":{"kind":"user","methods":{},"version":1}}}}