{"contracts/Creators.sol":{"Creators":{"abi":[{"inputs":[],"stateMutability":"payable","type":"constructor"},{"anonymous":false,"inputs":[{"indexed":false,"internalType":"uint256","name":"id","type":"uint256"},{"indexed":false,"internalType":"string","name":"username","type":"string"},{"indexed":false,"internalType":"address payable","name":"walletAddress","type":"address"},{"indexed":false,"internalType":"string","name":"ipfsHash","type":"string"},{"indexed":false,"internalType":"string","name":"userbio","type":"string"},{"indexed":false,"internalType":"uint256","name":"bountiesReceived","type":"uint256"},{"indexed":false,"internalType":"uint256","name":"supporters","type":"uint256"}],"name":"CreatorSubmission","type":"event"},{"anonymous":false,"inputs":[{"indexed":true,"internalType":"address","name":"from","type":"address"},{"indexed":false,"internalType":"uint256","name":"timestamp","type":"uint256"},{"indexed":false,"internalType":"string","name":"message","type":"string"}],"name":"SupporterSubmission","type":"event"},{"inputs":[],"name":"creatorCounter","outputs":[{"internalType":"uint256","name":"","type":"uint256"}],"stateMutability":"view","type":"function"},{"inputs":[{"internalType":"uint256","name":"index","type":"uint256"},{"internalType":"uint256","name":"amount","type":"uint256"}],"name":"creatorWithdrawTip","outputs":[{"internalType":"address payable","name":"_creatorAddress","type":"address"}],"stateMutability":"nonpayable","type":"function"},{"inputs":[],"name":"getCreatorList","outputs":[{"components":[{"internalType":"uint256","name":"id","type":"uint256"},{"internalType":"string","name":"username","type":"string"},{"internalType":"string","name":"ipfsHash","type":"string"},{"internalType":"address payable","name":"walletAddress","type":"address"},{"internalType":"string","name":"userbio","type":"string"},{"internalType":"uint256","name":"bountiesReceived","type":"uint256"},{"internalType":"uint256","name":"supporters","type":"uint256"}],"internalType":"struct Creators.CreatorInfo[]","name":"","type":"tuple[]"}],"stateMutability":"view","type":"function"},{"inputs":[],"name":"owner","outputs":[{"internalType":"address payable","name":"","type":"address"}],"stateMutability":"view","type":"function"},{"inputs":[{"internalType":"string","name":"_message","type":"string"},{"internalType":"uint256","name":"_index","type":"uint256"}],"name":"sendTip","outputs":[],"stateMutability":"payable","type":"function"},{"inputs":[{"internalType":"string","name":"_username","type":"string"},{"internalType":"string","name":"_ipfsHash","type":"string"},{"internalType":"string","name":"_userbio","type":"string"},{"internalType":"string","name":"_userSubmission","type":"string"}],"name":"setCreatorDetail","outputs":[],"stateMutability":"nonpayable","type":"function"}],"devdoc":{"kind":"dev","methods":{"sendTip(string,uint256)":{"details":"send tip to a creator (sends an CELO tip)","params":{"_message":"a nice message from the supporter"}}},"version":1},"evm":{"bytecode":{"linkReferences":{},"object":"608060405233600260006101000a81548173ffffffffffffffffffffffffffffffffffffffff021916908373ffffffffffffffffffffffffffffffffffffffff160217905550611845806100546000396000f3fe6080604052600436106100555760003560e01c806325e860a51461005a578063746614a8146100835780638da5cb5b146100c0578063c43ad481146100eb578063c580ec0a14610116578063c92d723114610132575b600080fd5b34801561006657600080fd5b50610081600480360381019061007c9190610bf2565b61015d565b005b34801561008f57600080fd5b506100aa60048036038101906100a59190610cff565b6104b0565b6040516100b79190610d80565b60405180910390f35b3480156100cc57600080fd5b506100d56106af565b6040516100e29190610d80565b60405180910390f35b3480156100f757600080fd5b506101006106d5565b60405161010d9190610daa565b60405180910390f35b610130600480360381019061012b9190610dc5565b6106db565b005b34801561013e57600080fd5b506101476107eb565b604051610154919061102a565b60405180910390f35b600084511161016b57600080fd5b600083511161017957600080fd5b600082511161018757600080fd5b600081511161019557600080fd5b60008060001515600360003373ffffffffffffffffffffffffffffffffffffffff1673ffffffffffffffffffffffffffffffffffffffff16815260200190815260200160002060009054906101000a900460ff1615151461022b576040517f08c379a0000000000000000000000000000000000000000000000000000000008152600401610222906110a9565b60405180910390fd5b6000151560048760405161023f9190611105565b908152602001604051809103902060009054906101000a900460ff1615151461029d576040517f08c379a000000000000000000000000000000000000000000000000000000000815260040161029490611168565b60405180910390fd5b60056040518060e001604052806102b46000610a74565b81526020018881526020018781526020013373ffffffffffffffffffffffffffffffffffffffff1681526020018681526020018481526020018381525090806001815401808255809150506001900390600052602060002090600702016000909190919091506000820151816000015560208201518160010190816103399190611394565b50604082015181600201908161034f9190611394565b5060608201518160030160006101000a81548173ffffffffffffffffffffffffffffffffffffffff021916908373ffffffffffffffffffffffffffffffffffffffff16021790555060808201518160040190816103ac9190611394565b5060a0820151816005015560c0820151816006015550506001600360003373ffffffffffffffffffffffffffffffffffffffff1673ffffffffffffffffffffffffffffffffffffffff16815260200190815260200160002060006101000a81548160ff021916908315150217905550600160048760405161042d9190611105565b908152602001604051809103902060006101000a81548160ff0219169083151502179055507f904a93f015c2173bf3eeb75e31f8fa127572bdb0bf83dfeccf73c9eb3e00c91161047d6000610a74565b873388888787604051610496979695949392919061149f565b60405180910390a16104a86000610a82565b505050505050565b600080600584815481106104c7576104c6611523565b5b9060005260206000209060070201905060008160050154905060008260030160009054906101000a900473ffffffffffffffffffffffffffffffffffffffff169050846005878154811061051e5761051d611523565b5b9060005260206000209060070201600501600082825461053e9190611581565b9250508190555081851115610588576040517f08c379a000000000000000000000000000000000000000000000000000000000815260040161057f90611601565b60405180910390fd5b8073ffffffffffffffffffffffffffffffffffffffff163373ffffffffffffffffffffffffffffffffffffffff16146105f6576040517f08c379a00000000000000000000000000000000000000000000000000000000081526004016105ed9061166d565b60405180910390fd5b60008173ffffffffffffffffffffffffffffffffffffffff168660405161061c906116be565b60006040518083038185875af1925050503d8060008114610659576040519150601f19603f3d011682016040523d82523d6000602084013e61065e565b606091505b50509050806106a2576040517f08c379a00000000000000000000000000000000000000000000000000000000081526004016106999061171f565b60405180910390fd5b8194505050505092915050565b600260009054906101000a900473ffffffffffffffffffffffffffffffffffffffff1681565b60015481565b34600582815481106106f0576106ef611523565b5b90600052602060002090600702016005016000828254610710919061173f565b9250508190555060016005828154811061072d5761072c611523565b5b9060005260206000209060070201600601600082825461074d919061173f565b9250508190555060003411610797576040517f08c379a000000000000000000000000000000000000000000000000000000000815260040161078e906117bf565b60405180910390fd5b3373ffffffffffffffffffffffffffffffffffffffff167fe75cefb3072c8ea5ba6f6fc0fabbe37eb2b82d81b84dc257c456f8194641132c42846040516107df9291906117df565b60405180910390a25050565b60606005805480602002602001604051908101604052809291908181526020016000905b82821015610a6b57838290600052602060002090600702016040518060e00160405290816000820154815260200160018201805461084c906111b7565b80601f0160208091040260200160405190810160405280929190818152602001828054610878906111b7565b80156108c55780601f1061089a576101008083540402835291602001916108c5565b820191906000526020600020905b8154815290600101906020018083116108a857829003601f168201915b505050505081526020016002820180546108de906111b7565b80601f016020809104026020016040519081016040528092919081815260200182805461090a906111b7565b80156109575780601f1061092c57610100808354040283529160200191610957565b820191906000526020600020905b81548152906001019060200180831161093a57829003601f168201915b505050505081526020016003820160009054906101000a900473ffffffffffffffffffffffffffffffffffffffff1673ffffffffffffffffffffffffffffffffffffffff1673ffffffffffffffffffffffffffffffffffffffff1681526020016004820180546109c6906111b7565b80601f01602080910402602001604051908101604052809291908181526020018280546109f2906111b7565b8015610a3f5780601f10610a1457610100808354040283529160200191610a3f565b820191906000526020600020905b815481529060010190602001808311610a2257829003601f168201915b50505050508152602001600582015481526020016006820154815250508152602001906001019061080f565b50505050905090565b600081600001549050919050565b6001816000016000828254019250508190555050565b6000604051905090565b600080fd5b600080fd5b600080fd5b600080fd5b6000601f19601f8301169050919050565b7f4e487b7100000000000000000000000000000000000000000000000000000000600052604160045260246000fd5b610aff82610ab6565b810181811067ffffffffffffffff82111715610b1e57610b1d610ac7565b5b80604052505050565b6000610b31610a98565b9050610b3d8282610af6565b919050565b600067ffffffffffffffff821115610b5d57610b5c610ac7565b5b610b6682610ab6565b9050602081019050919050565b82818337600083830152505050565b6000610b95610b9084610b42565b610b27565b905082815260208101848484011115610bb157610bb0610ab1565b5b610bbc848285610b73565b509392505050565b600082601f830112610bd957610bd8610aac565b5b8135610be9848260208601610b82565b91505092915050565b60008060008060808587031215610c0c57610c0b610aa2565b5b600085013567ffffffffffffffff811115610c2a57610c29610aa7565b5b610c3687828801610bc4565b945050602085013567ffffffffffffffff811115610c5757610c56610aa7565b5b610c6387828801610bc4565b935050604085013567ffffffffffffffff811115610c8457610c83610aa7565b5b610c9087828801610bc4565b925050606085013567ffffffffffffffff811115610cb157610cb0610aa7565b5b610cbd87828801610bc4565b91505092959194509250565b6000819050919050565b610cdc81610cc9565b8114610ce757600080fd5b50565b600081359050610cf981610cd3565b92915050565b60008060408385031215610d1657610d15610aa2565b5b6000610d2485828601610cea565b9250506020610d3585828601610cea565b9150509250929050565b600073ffffffffffffffffffffffffffffffffffffffff82169050919050565b6000610d6a82610d3f565b9050919050565b610d7a81610d5f565b82525050565b6000602082019050610d956000830184610d71565b92915050565b610da481610cc9565b82525050565b6000602082019050610dbf6000830184610d9b565b92915050565b60008060408385031215610ddc57610ddb610aa2565b5b600083013567ffffffffffffffff811115610dfa57610df9610aa7565b5b610e0685828601610bc4565b9250506020610e1785828601610cea565b9150509250929050565b600081519050919050565b600082825260208201905092915050565b6000819050602082019050919050565b610e5681610cc9565b82525050565b600081519050919050565b600082825260208201905092915050565b60005b83811015610e96578082015181840152602081019050610e7b565b60008484015250505050565b6000610ead82610e5c565b610eb78185610e67565b9350610ec7818560208601610e78565b610ed081610ab6565b840191505092915050565b610ee481610d5f565b82525050565b600060e083016000830151610f026000860182610e4d565b5060208301518482036020860152610f1a8282610ea2565b91505060408301518482036040860152610f348282610ea2565b9150506060830151610f496060860182610edb565b5060808301518482036080860152610f618282610ea2565b91505060a0830151610f7660a0860182610e4d565b5060c0830151610f8960c0860182610e4d565b508091505092915050565b6000610fa08383610eea565b905092915050565b6000602082019050919050565b6000610fc082610e21565b610fca8185610e2c565b935083602082028501610fdc85610e3d565b8060005b858110156110185784840389528151610ff98582610f94565b945061100483610fa8565b925060208a01995050600181019050610fe0565b50829750879550505050505092915050565b600060208201905081810360008301526110448184610fb5565b905092915050565b600082825260208201905092915050565b7f4164647265737320616c72656164792065786973740000000000000000000000600082015250565b600061109360158361104c565b915061109e8261105d565b602082019050919050565b600060208201905081810360008301526110c281611086565b9050919050565b600081905092915050565b60006110df82610e5c565b6110e981856110c9565b93506110f9818560208601610e78565b80840191505092915050565b600061111182846110d4565b915081905092915050565b7f557365726e616d6520616c726561647920657869737400000000000000000000600082015250565b600061115260168361104c565b915061115d8261111c565b602082019050919050565b6000602082019050818103600083015261118181611145565b9050919050565b7f4e487b7100000000000000000000000000000000000000000000000000000000600052602260045260246000fd5b600060028204905060018216806111cf57607f821691505b6020821081036111e2576111e1611188565b5b50919050565b60008190508160005260206000209050919050565b60006020601f8301049050919050565b600082821b905092915050565b60006008830261124a7fffffffffffffffffffffffffffffffffffffffffffffffffffffffffffffffff8261120d565b611254868361120d565b95508019841693508086168417925050509392505050565b6000819050919050565b600061129161128c61128784610cc9565b61126c565b610cc9565b9050919050565b6000819050919050565b6112ab83611276565b6112bf6112b782611298565b84845461121a565b825550505050565b600090565b6112d46112c7565b6112df8184846112a2565b505050565b5b81811015611303576112f86000826112cc565b6001810190506112e5565b5050565b601f82111561134857611319816111e8565b611322846111fd565b81016020851015611331578190505b61134561133d856111fd565b8301826112e4565b50505b505050565b600082821c905092915050565b600061136b6000198460080261134d565b1980831691505092915050565b6000611384838361135a565b9150826002028217905092915050565b61139d82610e5c565b67ffffffffffffffff8111156113b6576113b5610ac7565b5b6113c082546111b7565b6113cb828285611307565b600060209050601f8311600181146113fe57600084156113ec578287015190505b6113f68582611378565b86555061145e565b601f19841661140c866111e8565b60005b828110156114345784890151825560018201915060208501945060208101905061140f565b86831015611451578489015161144d601f89168261135a565b8355505b6001600288020188555050505b505050505050565b600061147182610e5c565b61147b818561104c565b935061148b818560208601610e78565b61149481610ab6565b840191505092915050565b600060e0820190506114b4600083018a610d9b565b81810360208301526114c68189611466565b90506114d56040830188610d71565b81810360608301526114e78187611466565b905081810360808301526114fb8186611466565b905061150a60a0830185610d9b565b61151760c0830184610d9b565b98975050505050505050565b7f4e487b7100000000000000000000000000000000000000000000000000000000600052603260045260246000fd5b7f4e487b7100000000000000000000000000000000000000000000000000000000600052601160045260246000fd5b600061158c82610cc9565b915061159783610cc9565b92508282039050818111156115af576115ae611552565b5b92915050565b7f496e73756666696369656e742062616c00000000000000000000000000000000600082015250565b60006115eb60108361104c565b91506115f6826115b5565b602082019050919050565b6000602082019050818103600083015261161a816115de565b9050919050565b7f596f7520617265206e6f74207468652063726561746f72000000000000000000600082015250565b600061165760178361104c565b915061166282611621565b602082019050919050565b600060208201905081810360008301526116868161164a565b9050919050565b600081905092915050565b50565b60006116a860008361168d565b91506116b382611698565b600082019050919050565b60006116c98261169b565b9150819050919050565b7f4661696c656420746f2073656e64204574686572000000000000000000000000600082015250565b600061170960148361104c565b9150611714826116d3565b602082019050919050565b60006020820190508181036000830152611738816116fc565b9050919050565b600061174a82610cc9565b915061175583610cc9565b925082820190508082111561176d5761176c611552565b5b92915050565b7f496e73756666696369656e742062616c616e6365210000000000000000000000600082015250565b60006117a960158361104c565b91506117b482611773565b602082019050919050565b600060208201905081810360008301526117d88161179c565b9050919050565b60006040820190506117f46000830185610d9b565b81810360208301526118068184611466565b9050939250505056fea26469706673582212207b56457b6988463dfb0d472c7bc28c1c8a3ef8279bec367b76523422eb03a47f64736f6c63430008110033","opcodes":"PUSH1 0x80 PUSH1 0x40 MSTORE CALLER PUSH1 0x2 PUSH1 0x0 PUSH2 0x100 EXP DUP2 SLOAD DUP2 PUSH20 0xFFFFFFFFFFFFFFFFFFFFFFFFFFFFFFFFFFFFFFFF MUL NOT AND SWAP1 DUP4 PUSH20 0xFFFFFFFFFFFFFFFFFFFFFFFFFFFFFFFFFFFFFFFF AND MUL OR SWAP1 SSTORE POP PUSH2 0x1845 DUP1 PUSH2 0x54 PUSH1 0x0 CODECOPY PUSH1 0x0 RETURN INVALID PUSH1 0x80 PUSH1 0x40 MSTORE PUSH1 0x4 CALLDATASIZE LT PUSH2 0x55 JUMPI PUSH1 0x0 CALLDATALOAD PUSH1 0xE0 SHR DUP1 PUSH4 0x25E860A5 EQ PUSH2 0x5A JUMPI DUP1 PUSH4 0x746614A8 EQ PUSH2 0x83 JUMPI DUP1 PUSH4 0x8DA5CB5B EQ PUSH2 0xC0 JUMPI DUP1 PUSH4 0xC43AD481 EQ PUSH2 0xEB JUMPI DUP1 PUSH4 0xC580EC0A EQ PUSH2 0x116 JUMPI DUP1 PUSH4 0xC92D7231 EQ PUSH2 0x132 JUMPI JUMPDEST PUSH1 0x0 DUP1 REVERT JUMPDEST CALLVALUE DUP1 ISZERO PUSH2 0x66 JUMPI PUSH1 0x0 DUP1 REVERT JUMPDEST POP PUSH2 0x81 PUSH1 0x4 DUP1 CALLDATASIZE SUB DUP2 ADD SWAP1 PUSH2 0x7C SWAP2 SWAP1 PUSH2 0xBF2 JUMP JUMPDEST PUSH2 0x15D JUMP JUMPDEST STOP JUMPDEST CALLVALUE DUP1 ISZERO PUSH2 0x8F JUMPI PUSH1 0x0 DUP1 REVERT JUMPDEST POP PUSH2 0xAA PUSH1 0x4 DUP1 CALLDATASIZE SUB DUP2 ADD SWAP1 PUSH2 0xA5 SWAP2 SWAP1 PUSH2 0xCFF JUMP JUMPDEST PUSH2 0x4B0 JUMP JUMPDEST PUSH1 0x40 MLOAD PUSH2 0xB7 SWAP2 SWAP1 PUSH2 0xD80 JUMP JUMPDEST PUSH1 0x40 MLOAD DUP1 SWAP2 SUB SWAP1 RETURN JUMPDEST CALLVALUE DUP1 ISZERO PUSH2 0xCC JUMPI PUSH1 0x0 DUP1 REVERT JUMPDEST POP PUSH2 0xD5 PUSH2 0x6AF JUMP JUMPDEST PUSH1 0x40 MLOAD PUSH2 0xE2 SWAP2 SWAP1 PUSH2 0xD80 JUMP JUMPDEST PUSH1 0x40 MLOAD DUP1 SWAP2 SUB SWAP1 RETURN JUMPDEST CALLVALUE DUP1 ISZERO PUSH2 0xF7 JUMPI PUSH1 0x0 DUP1 REVERT JUMPDEST POP PUSH2 0x100 PUSH2 0x6D5 JUMP JUMPDEST PUSH1 0x40 MLOAD PUSH2 0x10D SWAP2 SWAP1 PUSH2 0xDAA JUMP JUMPDEST PUSH1 0x40 MLOAD DUP1 SWAP2 SUB SWAP1 RETURN JUMPDEST PUSH2 0x130 PUSH1 0x4 DUP1 CALLDATASIZE SUB DUP2 ADD SWAP1 PUSH2 0x12B SWAP2 SWAP1 PUSH2 0xDC5 JUMP JUMPDEST PUSH2 0x6DB JUMP JUMPDEST STOP JUMPDEST CALLVALUE DUP1 ISZERO PUSH2 0x13E JUMPI PUSH1 0x0 DUP1 REVERT JUMPDEST POP PUSH2 0x147 PUSH2 0x7EB JUMP JUMPDEST PUSH1 0x40 MLOAD PUSH2 0x154 SWAP2 SWAP1 PUSH2 0x102A JUMP JUMPDEST PUSH1 0x40 MLOAD DUP1 SWAP2 SUB SWAP1 RETURN JUMPDEST PUSH1 0x0 DUP5 MLOAD GT PUSH2 0x16B JUMPI PUSH1 0x0 DUP1 REVERT JUMPDEST PUSH1 0x0 DUP4 MLOAD GT PUSH2 0x179 JUMPI PUSH1 0x0 DUP1 REVERT JUMPDEST PUSH1 0x0 DUP3 MLOAD GT PUSH2 0x187 JUMPI PUSH1 0x0 DUP1 REVERT JUMPDEST PUSH1 0x0 DUP2 MLOAD GT PUSH2 0x195 JUMPI PUSH1 0x0 DUP1 REVERT JUMPDEST PUSH1 0x0 DUP1 PUSH1 0x0 ISZERO ISZERO PUSH1 0x3 PUSH1 0x0 CALLER PUSH20 0xFFFFFFFFFFFFFFFFFFFFFFFFFFFFFFFFFFFFFFFF AND PUSH20 0xFFFFFFFFFFFFFFFFFFFFFFFFFFFFFFFFFFFFFFFF AND DUP2 MSTORE PUSH1 0x20 ADD SWAP1 DUP2 MSTORE PUSH1 0x20 ADD PUSH1 0x0 KECCAK256 PUSH1 0x0 SWAP1 SLOAD SWAP1 PUSH2 0x100 EXP SWAP1 DIV PUSH1 0xFF AND ISZERO ISZERO EQ PUSH2 0x22B JUMPI PUSH1 0x40 MLOAD PUSH32 0x8C379A000000000000000000000000000000000000000000000000000000000 DUP2 MSTORE PUSH1 0x4 ADD PUSH2 0x222 SWAP1 PUSH2 0x10A9 JUMP JUMPDEST PUSH1 0x40 MLOAD DUP1 SWAP2 SUB SWAP1 REVERT JUMPDEST PUSH1 0x0 ISZERO ISZERO PUSH1 0x4 DUP8 PUSH1 0x40 MLOAD PUSH2 0x23F SWAP2 SWAP1 PUSH2 0x1105 JUMP JUMPDEST SWAP1 DUP2 MSTORE PUSH1 0x20 ADD PUSH1 0x40 MLOAD DUP1 SWAP2 SUB SWAP1 KECCAK256 PUSH1 0x0 SWAP1 SLOAD SWAP1 PUSH2 0x100 EXP SWAP1 DIV PUSH1 0xFF AND ISZERO ISZERO EQ PUSH2 0x29D JUMPI PUSH1 0x40 MLOAD PUSH32 0x8C379A000000000000000000000000000000000000000000000000000000000 DUP2 MSTORE PUSH1 0x4 ADD PUSH2 0x294 SWAP1 PUSH2 0x1168 JUMP JUMPDEST PUSH1 0x40 MLOAD DUP1 SWAP2 SUB SWAP1 REVERT JUMPDEST PUSH1 0x5 PUSH1 0x40 MLOAD DUP1 PUSH1 0xE0 ADD PUSH1 0x40 MSTORE DUP1 PUSH2 0x2B4 PUSH1 0x0 PUSH2 0xA74 JUMP JUMPDEST DUP2 MSTORE PUSH1 0x20 ADD DUP9 DUP2 MSTORE PUSH1 0x20 ADD DUP8 DUP2 MSTORE PUSH1 0x20 ADD CALLER PUSH20 0xFFFFFFFFFFFFFFFFFFFFFFFFFFFFFFFFFFFFFFFF AND DUP2 MSTORE PUSH1 0x20 ADD DUP7 DUP2 MSTORE PUSH1 0x20 ADD DUP5 DUP2 MSTORE PUSH1 0x20 ADD DUP4 DUP2 MSTORE POP SWAP1 DUP1 PUSH1 0x1 DUP2 SLOAD ADD DUP1 DUP3 SSTORE DUP1 SWAP2 POP POP PUSH1 0x1 SWAP1 SUB SWAP1 PUSH1 0x0 MSTORE PUSH1 0x20 PUSH1 0x0 KECCAK256 SWAP1 PUSH1 0x7 MUL ADD PUSH1 0x0 SWAP1 SWAP2 SWAP1 SWAP2 SWAP1 SWAP2 POP PUSH1 0x0 DUP3 ADD MLOAD DUP2 PUSH1 0x0 ADD SSTORE PUSH1 0x20 DUP3 ADD MLOAD DUP2 PUSH1 0x1 ADD SWAP1 DUP2 PUSH2 0x339 SWAP2 SWAP1 PUSH2 0x1394 JUMP JUMPDEST POP PUSH1 0x40 DUP3 ADD MLOAD DUP2 PUSH1 0x2 ADD SWAP1 DUP2 PUSH2 0x34F SWAP2 SWAP1 PUSH2 0x1394 JUMP JUMPDEST POP PUSH1 0x60 DUP3 ADD MLOAD DUP2 PUSH1 0x3 ADD PUSH1 0x0 PUSH2 0x100 EXP DUP2 SLOAD DUP2 PUSH20 0xFFFFFFFFFFFFFFFFFFFFFFFFFFFFFFFFFFFFFFFF MUL NOT AND SWAP1 DUP4 PUSH20 0xFFFFFFFFFFFFFFFFFFFFFFFFFFFFFFFFFFFFFFFF AND MUL OR SWAP1 SSTORE POP PUSH1 0x80 DUP3 ADD MLOAD DUP2 PUSH1 0x4 ADD SWAP1 DUP2 PUSH2 0x3AC SWAP2 SWAP1 PUSH2 0x1394 JUMP JUMPDEST POP PUSH1 0xA0 DUP3 ADD MLOAD DUP2 PUSH1 0x5 ADD SSTORE PUSH1 0xC0 DUP3 ADD MLOAD DUP2 PUSH1 0x6 ADD SSTORE POP POP PUSH1 0x1 PUSH1 0x3 PUSH1 0x0 CALLER PUSH20 0xFFFFFFFFFFFFFFFFFFFFFFFFFFFFFFFFFFFFFFFF AND PUSH20 0xFFFFFFFFFFFFFFFFFFFFFFFFFFFFFFFFFFFFFFFF AND DUP2 MSTORE PUSH1 0x20 ADD SWAP1 DUP2 MSTORE PUSH1 0x20 ADD PUSH1 0x0 KECCAK256 PUSH1 0x0 PUSH2 0x100 EXP DUP2 SLOAD DUP2 PUSH1 0xFF MUL NOT AND SWAP1 DUP4 ISZERO ISZERO MUL OR SWAP1 SSTORE POP PUSH1 0x1 PUSH1 0x4 DUP8 PUSH1 0x40 MLOAD PUSH2 0x42D SWAP2 SWAP1 PUSH2 0x1105 JUMP JUMPDEST SWAP1 DUP2 MSTORE PUSH1 0x20 ADD PUSH1 0x40 MLOAD DUP1 SWAP2 SUB SWAP1 KECCAK256 PUSH1 0x0 PUSH2 0x100 EXP DUP2 SLOAD DUP2 PUSH1 0xFF MUL NOT AND SWAP1 DUP4 ISZERO ISZERO MUL OR SWAP1 SSTORE POP PUSH32 0x904A93F015C2173BF3EEB75E31F8FA127572BDB0BF83DFECCF73C9EB3E00C911 PUSH2 0x47D PUSH1 0x0 PUSH2 0xA74 JUMP JUMPDEST DUP8 CALLER DUP9 DUP9 DUP8 DUP8 PUSH1 0x40 MLOAD PUSH2 0x496 SWAP8 SWAP7 SWAP6 SWAP5 SWAP4 SWAP3 SWAP2 SWAP1 PUSH2 0x149F JUMP JUMPDEST PUSH1 0x40 MLOAD DUP1 SWAP2 SUB SWAP1 LOG1 PUSH2 0x4A8 PUSH1 0x0 PUSH2 0xA82 JUMP JUMPDEST POP POP POP POP POP POP JUMP JUMPDEST PUSH1 0x0 DUP1 PUSH1 0x5 DUP5 DUP2 SLOAD DUP2 LT PUSH2 0x4C7 JUMPI PUSH2 0x4C6 PUSH2 0x1523 JUMP JUMPDEST JUMPDEST SWAP1 PUSH1 0x0 MSTORE PUSH1 0x20 PUSH1 0x0 KECCAK256 SWAP1 PUSH1 0x7 MUL ADD SWAP1 POP PUSH1 0x0 DUP2 PUSH1 0x5 ADD SLOAD SWAP1 POP PUSH1 0x0 DUP3 PUSH1 0x3 ADD PUSH1 0x0 SWAP1 SLOAD SWAP1 PUSH2 0x100 EXP SWAP1 DIV PUSH20 0xFFFFFFFFFFFFFFFFFFFFFFFFFFFFFFFFFFFFFFFF AND SWAP1 POP DUP5 PUSH1 0x5 DUP8 DUP2 SLOAD DUP2 LT PUSH2 0x51E JUMPI PUSH2 0x51D PUSH2 0x1523 JUMP JUMPDEST JUMPDEST SWAP1 PUSH1 0x0 MSTORE PUSH1 0x20 PUSH1 0x0 KECCAK256 SWAP1 PUSH1 0x7 MUL ADD PUSH1 0x5 ADD PUSH1 0x0 DUP3 DUP3 SLOAD PUSH2 0x53E SWAP2 SWAP1 PUSH2 0x1581 JUMP JUMPDEST SWAP3 POP POP DUP2 SWAP1 SSTORE POP DUP2 DUP6 GT ISZERO PUSH2 0x588 JUMPI PUSH1 0x40 MLOAD PUSH32 0x8C379A000000000000000000000000000000000000000000000000000000000 DUP2 MSTORE PUSH1 0x4 ADD PUSH2 0x57F SWAP1 PUSH2 0x1601 JUMP JUMPDEST PUSH1 0x40 MLOAD DUP1 SWAP2 SUB SWAP1 REVERT JUMPDEST DUP1 PUSH20 0xFFFFFFFFFFFFFFFFFFFFFFFFFFFFFFFFFFFFFFFF AND CALLER PUSH20 0xFFFFFFFFFFFFFFFFFFFFFFFFFFFFFFFFFFFFFFFF AND EQ PUSH2 0x5F6 JUMPI PUSH1 0x40 MLOAD PUSH32 0x8C379A000000000000000000000000000000000000000000000000000000000 DUP2 MSTORE PUSH1 0x4 ADD PUSH2 0x5ED SWAP1 PUSH2 0x166D JUMP JUMPDEST PUSH1 0x40 MLOAD DUP1 SWAP2 SUB SWAP1 REVERT JUMPDEST PUSH1 0x0 DUP2 PUSH20 0xFFFFFFFFFFFFFFFFFFFFFFFFFFFFFFFFFFFFFFFF AND DUP7 PUSH1 0x40 MLOAD PUSH2 0x61C SWAP1 PUSH2 0x16BE JUMP JUMPDEST PUSH1 0x0 PUSH1 0x40 MLOAD DUP1 DUP4 SUB DUP2 DUP6 DUP8 GAS CALL SWAP3 POP POP POP RETURNDATASIZE DUP1 PUSH1 0x0 DUP2 EQ PUSH2 0x659 JUMPI PUSH1 0x40 MLOAD SWAP2 POP PUSH1 0x1F NOT PUSH1 0x3F RETURNDATASIZE ADD AND DUP3 ADD PUSH1 0x40 MSTORE RETURNDATASIZE DUP3 MSTORE RETURNDATASIZE PUSH1 0x0 PUSH1 0x20 DUP5 ADD RETURNDATACOPY PUSH2 0x65E JUMP JUMPDEST PUSH1 0x60 SWAP2 POP JUMPDEST POP POP SWAP1 POP DUP1 PUSH2 0x6A2 JUMPI PUSH1 0x40 MLOAD PUSH32 0x8C379A000000000000000000000000000000000000000000000000000000000 DUP2 MSTORE PUSH1 0x4 ADD PUSH2 0x699 SWAP1 PUSH2 0x171F JUMP JUMPDEST PUSH1 0x40 MLOAD DUP1 SWAP2 SUB SWAP1 REVERT JUMPDEST DUP2 SWAP5 POP POP POP POP POP SWAP3 SWAP2 POP POP JUMP JUMPDEST PUSH1 0x2 PUSH1 0x0 SWAP1 SLOAD SWAP1 PUSH2 0x100 EXP SWAP1 DIV PUSH20 0xFFFFFFFFFFFFFFFFFFFFFFFFFFFFFFFFFFFFFFFF AND DUP2 JUMP JUMPDEST PUSH1 0x1 SLOAD DUP2 JUMP JUMPDEST CALLVALUE PUSH1 0x5 DUP3 DUP2 SLOAD DUP2 LT PUSH2 0x6F0 JUMPI PUSH2 0x6EF PUSH2 0x1523 JUMP JUMPDEST JUMPDEST SWAP1 PUSH1 0x0 MSTORE PUSH1 0x20 PUSH1 0x0 KECCAK256 SWAP1 PUSH1 0x7 MUL ADD PUSH1 0x5 ADD PUSH1 0x0 DUP3 DUP3 SLOAD PUSH2 0x710 SWAP2 SWAP1 PUSH2 0x173F JUMP JUMPDEST SWAP3 POP POP DUP2 SWAP1 SSTORE POP PUSH1 0x1 PUSH1 0x5 DUP3 DUP2 SLOAD DUP2 LT PUSH2 0x72D JUMPI PUSH2 0x72C PUSH2 0x1523 JUMP JUMPDEST JUMPDEST SWAP1 PUSH1 0x0 MSTORE PUSH1 0x20 PUSH1 0x0 KECCAK256 SWAP1 PUSH1 0x7 MUL ADD PUSH1 0x6 ADD PUSH1 0x0 DUP3 DUP3 SLOAD PUSH2 0x74D SWAP2 SWAP1 PUSH2 0x173F JUMP JUMPDEST SWAP3 POP POP DUP2 SWAP1 SSTORE POP PUSH1 0x0 CALLVALUE GT PUSH2 0x797 JUMPI PUSH1 0x40 MLOAD PUSH32 0x8C379A000000000000000000000000000000000000000000000000000000000 DUP2 MSTORE PUSH1 0x4 ADD PUSH2 0x78E SWAP1 PUSH2 0x17BF JUMP JUMPDEST PUSH1 0x40 MLOAD DUP1 SWAP2 SUB SWAP1 REVERT JUMPDEST CALLER PUSH20 0xFFFFFFFFFFFFFFFFFFFFFFFFFFFFFFFFFFFFFFFF AND PUSH32 0xE75CEFB3072C8EA5BA6F6FC0FABBE37EB2B82D81B84DC257C456F8194641132C TIMESTAMP DUP5 PUSH1 0x40 MLOAD PUSH2 0x7DF SWAP3 SWAP2 SWAP1 PUSH2 0x17DF JUMP JUMPDEST PUSH1 0x40 MLOAD DUP1 SWAP2 SUB SWAP1 LOG2 POP POP JUMP JUMPDEST PUSH1 0x60 PUSH1 0x5 DUP1 SLOAD DUP1 PUSH1 0x20 MUL PUSH1 0x20 ADD PUSH1 0x40 MLOAD SWAP1 DUP2 ADD PUSH1 0x40 MSTORE DUP1 SWAP3 SWAP2 SWAP1 DUP2 DUP2 MSTORE PUSH1 0x20 ADD PUSH1 0x0 SWAP1 JUMPDEST DUP3 DUP3 LT ISZERO PUSH2 0xA6B JUMPI DUP4 DUP3 SWAP1 PUSH1 0x0 MSTORE PUSH1 0x20 PUSH1 0x0 KECCAK256 SWAP1 PUSH1 0x7 MUL ADD PUSH1 0x40 MLOAD DUP1 PUSH1 0xE0 ADD PUSH1 0x40 MSTORE SWAP1 DUP2 PUSH1 0x0 DUP3 ADD SLOAD DUP2 MSTORE PUSH1 0x20 ADD PUSH1 0x1 DUP3 ADD DUP1 SLOAD PUSH2 0x84C SWAP1 PUSH2 0x11B7 JUMP JUMPDEST DUP1 PUSH1 0x1F ADD PUSH1 0x20 DUP1 SWAP2 DIV MUL PUSH1 0x20 ADD PUSH1 0x40 MLOAD SWAP1 DUP2 ADD PUSH1 0x40 MSTORE DUP1 SWAP3 SWAP2 SWAP1 DUP2 DUP2 MSTORE PUSH1 0x20 ADD DUP3 DUP1 SLOAD PUSH2 0x878 SWAP1 PUSH2 0x11B7 JUMP JUMPDEST DUP1 ISZERO PUSH2 0x8C5 JUMPI DUP1 PUSH1 0x1F LT PUSH2 0x89A JUMPI PUSH2 0x100 DUP1 DUP4 SLOAD DIV MUL DUP4 MSTORE SWAP2 PUSH1 0x20 ADD SWAP2 PUSH2 0x8C5 JUMP JUMPDEST DUP3 ADD SWAP2 SWAP1 PUSH1 0x0 MSTORE PUSH1 0x20 PUSH1 0x0 KECCAK256 SWAP1 JUMPDEST DUP2 SLOAD DUP2 MSTORE SWAP1 PUSH1 0x1 ADD SWAP1 PUSH1 0x20 ADD DUP1 DUP4 GT PUSH2 0x8A8 JUMPI DUP3 SWAP1 SUB PUSH1 0x1F AND DUP3 ADD SWAP2 JUMPDEST POP POP POP POP POP DUP2 MSTORE PUSH1 0x20 ADD PUSH1 0x2 DUP3 ADD DUP1 SLOAD PUSH2 0x8DE SWAP1 PUSH2 0x11B7 JUMP JUMPDEST DUP1 PUSH1 0x1F ADD PUSH1 0x20 DUP1 SWAP2 DIV MUL PUSH1 0x20 ADD PUSH1 0x40 MLOAD SWAP1 DUP2 ADD PUSH1 0x40 MSTORE DUP1 SWAP3 SWAP2 SWAP1 DUP2 DUP2 MSTORE PUSH1 0x20 ADD DUP3 DUP1 SLOAD PUSH2 0x90A SWAP1 PUSH2 0x11B7 JUMP JUMPDEST DUP1 ISZERO PUSH2 0x957 JUMPI DUP1 PUSH1 0x1F LT PUSH2 0x92C JUMPI PUSH2 0x100 DUP1 DUP4 SLOAD DIV MUL DUP4 MSTORE SWAP2 PUSH1 0x20 ADD SWAP2 PUSH2 0x957 JUMP JUMPDEST DUP3 ADD SWAP2 SWAP1 PUSH1 0x0 MSTORE PUSH1 0x20 PUSH1 0x0 KECCAK256 SWAP1 JUMPDEST DUP2 SLOAD DUP2 MSTORE SWAP1 PUSH1 0x1 ADD SWAP1 PUSH1 0x20 ADD DUP1 DUP4 GT PUSH2 0x93A JUMPI DUP3 SWAP1 SUB PUSH1 0x1F AND DUP3 ADD SWAP2 JUMPDEST POP POP POP POP POP DUP2 MSTORE PUSH1 0x20 ADD PUSH1 0x3 DUP3 ADD PUSH1 0x0 SWAP1 SLOAD SWAP1 PUSH2 0x100 EXP SWAP1 DIV PUSH20 0xFFFFFFFFFFFFFFFFFFFFFFFFFFFFFFFFFFFFFFFF AND PUSH20 0xFFFFFFFFFFFFFFFFFFFFFFFFFFFFFFFFFFFFFFFF AND PUSH20 0xFFFFFFFFFFFFFFFFFFFFFFFFFFFFFFFFFFFFFFFF AND DUP2 MSTORE PUSH1 0x20 ADD PUSH1 0x4 DUP3 ADD DUP1 SLOAD PUSH2 0x9C6 SWAP1 PUSH2 0x11B7 JUMP JUMPDEST DUP1 PUSH1 0x1F ADD PUSH1 0x20 DUP1 SWAP2 DIV MUL PUSH1 0x20 ADD PUSH1 0x40 MLOAD SWAP1 DUP2 ADD PUSH1 0x40 MSTORE DUP1 SWAP3 SWAP2 SWAP1 DUP2 DUP2 MSTORE PUSH1 0x20 ADD DUP3 DUP1 SLOAD PUSH2 0x9F2 SWAP1 PUSH2 0x11B7 JUMP JUMPDEST DUP1 ISZERO PUSH2 0xA3F JUMPI DUP1 PUSH1 0x1F LT PUSH2 0xA14 JUMPI PUSH2 0x100 DUP1 DUP4 SLOAD DIV MUL DUP4 MSTORE SWAP2 PUSH1 0x20 ADD SWAP2 PUSH2 0xA3F JUMP JUMPDEST DUP3 ADD SWAP2 SWAP1 PUSH1 0x0 MSTORE PUSH1 0x20 PUSH1 0x0 KECCAK256 SWAP1 JUMPDEST DUP2 SLOAD DUP2 MSTORE SWAP1 PUSH1 0x1 ADD SWAP1 PUSH1 0x20 ADD DUP1 DUP4 GT PUSH2 0xA22 JUMPI DUP3 SWAP1 SUB PUSH1 0x1F AND DUP3 ADD SWAP2 JUMPDEST POP POP POP POP POP DUP2 MSTORE PUSH1 0x20 ADD PUSH1 0x5 DUP3 ADD SLOAD DUP2 MSTORE PUSH1 0x20 ADD PUSH1 0x6 DUP3 ADD SLOAD DUP2 MSTORE POP POP DUP2 MSTORE PUSH1 0x20 ADD SWAP1 PUSH1 0x1 ADD SWAP1 PUSH2 0x80F JUMP JUMPDEST POP POP POP POP SWAP1 POP SWAP1 JUMP JUMPDEST PUSH1 0x0 DUP2 PUSH1 0x0 ADD SLOAD SWAP1 POP SWAP2 SWAP1 POP JUMP JUMPDEST PUSH1 0x1 DUP2 PUSH1 0x0 ADD PUSH1 0x0 DUP3 DUP3 SLOAD ADD SWAP3 POP POP DUP2 SWAP1 SSTORE POP POP JUMP JUMPDEST PUSH1 0x0 PUSH1 0x40 MLOAD SWAP1 POP SWAP1 JUMP JUMPDEST PUSH1 0x0 DUP1 REVERT JUMPDEST PUSH1 0x0 DUP1 REVERT JUMPDEST PUSH1 0x0 DUP1 REVERT JUMPDEST PUSH1 0x0 DUP1 REVERT JUMPDEST PUSH1 0x0 PUSH1 0x1F NOT PUSH1 0x1F DUP4 ADD AND SWAP1 POP SWAP2 SWAP1 POP JUMP JUMPDEST PUSH32 0x4E487B7100000000000000000000000000000000000000000000000000000000 PUSH1 0x0 MSTORE PUSH1 0x41 PUSH1 0x4 MSTORE PUSH1 0x24 PUSH1 0x0 REVERT JUMPDEST PUSH2 0xAFF DUP3 PUSH2 0xAB6 JUMP JUMPDEST DUP2 ADD DUP2 DUP2 LT PUSH8 0xFFFFFFFFFFFFFFFF DUP3 GT OR ISZERO PUSH2 0xB1E JUMPI PUSH2 0xB1D PUSH2 0xAC7 JUMP JUMPDEST JUMPDEST DUP1 PUSH1 0x40 MSTORE POP POP POP JUMP JUMPDEST PUSH1 0x0 PUSH2 0xB31 PUSH2 0xA98 JUMP JUMPDEST SWAP1 POP PUSH2 0xB3D DUP3 DUP3 PUSH2 0xAF6 JUMP JUMPDEST SWAP2 SWAP1 POP JUMP JUMPDEST PUSH1 0x0 PUSH8 0xFFFFFFFFFFFFFFFF DUP3 GT ISZERO PUSH2 0xB5D JUMPI PUSH2 0xB5C PUSH2 0xAC7 JUMP JUMPDEST JUMPDEST PUSH2 0xB66 DUP3 PUSH2 0xAB6 JUMP JUMPDEST SWAP1 POP PUSH1 0x20 DUP2 ADD SWAP1 POP SWAP2 SWAP1 POP JUMP JUMPDEST DUP3 DUP2 DUP4 CALLDATACOPY PUSH1 0x0 DUP4 DUP4 ADD MSTORE POP POP POP JUMP JUMPDEST PUSH1 0x0 PUSH2 0xB95 PUSH2 0xB90 DUP5 PUSH2 0xB42 JUMP JUMPDEST PUSH2 0xB27 JUMP JUMPDEST SWAP1 POP DUP3 DUP2 MSTORE PUSH1 0x20 DUP2 ADD DUP5 DUP5 DUP5 ADD GT ISZERO PUSH2 0xBB1 JUMPI PUSH2 0xBB0 PUSH2 0xAB1 JUMP JUMPDEST JUMPDEST PUSH2 0xBBC DUP5 DUP3 DUP6 PUSH2 0xB73 JUMP JUMPDEST POP SWAP4 SWAP3 POP POP POP JUMP JUMPDEST PUSH1 0x0 DUP3 PUSH1 0x1F DUP4 ADD SLT PUSH2 0xBD9 JUMPI PUSH2 0xBD8 PUSH2 0xAAC JUMP JUMPDEST JUMPDEST DUP2 CALLDATALOAD PUSH2 0xBE9 DUP5 DUP3 PUSH1 0x20 DUP7 ADD PUSH2 0xB82 JUMP JUMPDEST SWAP2 POP POP SWAP3 SWAP2 POP POP JUMP JUMPDEST PUSH1 0x0 DUP1 PUSH1 0x0 DUP1 PUSH1 0x80 DUP6 DUP8 SUB SLT ISZERO PUSH2 0xC0C JUMPI PUSH2 0xC0B PUSH2 0xAA2 JUMP JUMPDEST JUMPDEST PUSH1 0x0 DUP6 ADD CALLDATALOAD PUSH8 0xFFFFFFFFFFFFFFFF DUP2 GT ISZERO PUSH2 0xC2A JUMPI PUSH2 0xC29 PUSH2 0xAA7 JUMP JUMPDEST JUMPDEST PUSH2 0xC36 DUP8 DUP3 DUP9 ADD PUSH2 0xBC4 JUMP JUMPDEST SWAP5 POP POP PUSH1 0x20 DUP6 ADD CALLDATALOAD PUSH8 0xFFFFFFFFFFFFFFFF DUP2 GT ISZERO PUSH2 0xC57 JUMPI PUSH2 0xC56 PUSH2 0xAA7 JUMP JUMPDEST JUMPDEST PUSH2 0xC63 DUP8 DUP3 DUP9 ADD PUSH2 0xBC4 JUMP JUMPDEST SWAP4 POP POP PUSH1 0x40 DUP6 ADD CALLDATALOAD PUSH8 0xFFFFFFFFFFFFFFFF DUP2 GT ISZERO PUSH2 0xC84 JUMPI PUSH2 0xC83 PUSH2 0xAA7 JUMP JUMPDEST JUMPDEST PUSH2 0xC90 DUP8 DUP3 DUP9 ADD PUSH2 0xBC4 JUMP JUMPDEST SWAP3 POP POP PUSH1 0x60 DUP6 ADD CALLDATALOAD PUSH8 0xFFFFFFFFFFFFFFFF DUP2 GT ISZERO PUSH2 0xCB1 JUMPI PUSH2 0xCB0 PUSH2 0xAA7 JUMP JUMPDEST JUMPDEST PUSH2 0xCBD DUP8 DUP3 DUP9 ADD PUSH2 0xBC4 JUMP JUMPDEST SWAP2 POP POP SWAP3 SWAP6 SWAP2 SWAP5 POP SWAP3 POP JUMP JUMPDEST PUSH1 0x0 DUP2 SWAP1 POP SWAP2 SWAP1 POP JUMP JUMPDEST PUSH2 0xCDC DUP2 PUSH2 0xCC9 JUMP JUMPDEST DUP2 EQ PUSH2 0xCE7 JUMPI PUSH1 0x0 DUP1 REVERT JUMPDEST POP JUMP JUMPDEST PUSH1 0x0 DUP2 CALLDATALOAD SWAP1 POP PUSH2 0xCF9 DUP2 PUSH2 0xCD3 JUMP JUMPDEST SWAP3 SWAP2 POP POP JUMP JUMPDEST PUSH1 0x0 DUP1 PUSH1 0x40 DUP4 DUP6 SUB SLT ISZERO PUSH2 0xD16 JUMPI PUSH2 0xD15 PUSH2 0xAA2 JUMP JUMPDEST JUMPDEST PUSH1 0x0 PUSH2 0xD24 DUP6 DUP3 DUP7 ADD PUSH2 0xCEA JUMP JUMPDEST SWAP3 POP POP PUSH1 0x20 PUSH2 0xD35 DUP6 DUP3 DUP7 ADD PUSH2 0xCEA JUMP JUMPDEST SWAP2 POP POP SWAP3 POP SWAP3 SWAP1 POP JUMP JUMPDEST PUSH1 0x0 PUSH20 0xFFFFFFFFFFFFFFFFFFFFFFFFFFFFFFFFFFFFFFFF DUP3 AND SWAP1 POP SWAP2 SWAP1 POP JUMP JUMPDEST PUSH1 0x0 PUSH2 0xD6A DUP3 PUSH2 0xD3F JUMP JUMPDEST SWAP1 POP SWAP2 SWAP1 POP JUMP JUMPDEST PUSH2 0xD7A DUP2 PUSH2 0xD5F JUMP JUMPDEST DUP3 MSTORE POP POP JUMP JUMPDEST PUSH1 0x0 PUSH1 0x20 DUP3 ADD SWAP1 POP PUSH2 0xD95 PUSH1 0x0 DUP4 ADD DUP5 PUSH2 0xD71 JUMP JUMPDEST SWAP3 SWAP2 POP POP JUMP JUMPDEST PUSH2 0xDA4 DUP2 PUSH2 0xCC9 JUMP JUMPDEST DUP3 MSTORE POP POP JUMP JUMPDEST PUSH1 0x0 PUSH1 0x20 DUP3 ADD SWAP1 POP PUSH2 0xDBF PUSH1 0x0 DUP4 ADD DUP5 PUSH2 0xD9B JUMP JUMPDEST SWAP3 SWAP2 POP POP JUMP JUMPDEST PUSH1 0x0 DUP1 PUSH1 0x40 DUP4 DUP6 SUB SLT ISZERO PUSH2 0xDDC JUMPI PUSH2 0xDDB PUSH2 0xAA2 JUMP JUMPDEST JUMPDEST PUSH1 0x0 DUP4 ADD CALLDATALOAD PUSH8 0xFFFFFFFFFFFFFFFF DUP2 GT ISZERO PUSH2 0xDFA JUMPI PUSH2 0xDF9 PUSH2 0xAA7 JUMP JUMPDEST JUMPDEST PUSH2 0xE06 DUP6 DUP3 DUP7 ADD PUSH2 0xBC4 JUMP JUMPDEST SWAP3 POP POP PUSH1 0x20 PUSH2 0xE17 DUP6 DUP3 DUP7 ADD PUSH2 0xCEA JUMP JUMPDEST SWAP2 POP POP SWAP3 POP SWAP3 SWAP1 POP JUMP JUMPDEST PUSH1 0x0 DUP2 MLOAD SWAP1 POP SWAP2 SWAP1 POP JUMP JUMPDEST PUSH1 0x0 DUP3 DUP3 MSTORE PUSH1 0x20 DUP3 ADD SWAP1 POP SWAP3 SWAP2 POP POP JUMP JUMPDEST PUSH1 0x0 DUP2 SWAP1 POP PUSH1 0x20 DUP3 ADD SWAP1 POP SWAP2 SWAP1 POP JUMP JUMPDEST PUSH2 0xE56 DUP2 PUSH2 0xCC9 JUMP JUMPDEST DUP3 MSTORE POP POP JUMP JUMPDEST PUSH1 0x0 DUP2 MLOAD SWAP1 POP SWAP2 SWAP1 POP JUMP JUMPDEST PUSH1 0x0 DUP3 DUP3 MSTORE PUSH1 0x20 DUP3 ADD SWAP1 POP SWAP3 SWAP2 POP POP JUMP JUMPDEST PUSH1 0x0 JUMPDEST DUP4 DUP2 LT ISZERO PUSH2 0xE96 JUMPI DUP1 DUP3 ADD MLOAD DUP2 DUP5 ADD MSTORE PUSH1 0x20 DUP2 ADD SWAP1 POP PUSH2 0xE7B JUMP JUMPDEST PUSH1 0x0 DUP5 DUP5 ADD MSTORE POP POP POP POP JUMP JUMPDEST PUSH1 0x0 PUSH2 0xEAD DUP3 PUSH2 0xE5C JUMP JUMPDEST PUSH2 0xEB7 DUP2 DUP6 PUSH2 0xE67 JUMP JUMPDEST SWAP4 POP PUSH2 0xEC7 DUP2 DUP6 PUSH1 0x20 DUP7 ADD PUSH2 0xE78 JUMP JUMPDEST PUSH2 0xED0 DUP2 PUSH2 0xAB6 JUMP JUMPDEST DUP5 ADD SWAP2 POP POP SWAP3 SWAP2 POP POP JUMP JUMPDEST PUSH2 0xEE4 DUP2 PUSH2 0xD5F JUMP JUMPDEST DUP3 MSTORE POP POP JUMP JUMPDEST PUSH1 0x0 PUSH1 0xE0 DUP4 ADD PUSH1 0x0 DUP4 ADD MLOAD PUSH2 0xF02 PUSH1 0x0 DUP7 ADD DUP3 PUSH2 0xE4D JUMP JUMPDEST POP PUSH1 0x20 DUP4 ADD MLOAD DUP5 DUP3 SUB PUSH1 0x20 DUP7 ADD MSTORE PUSH2 0xF1A DUP3 DUP3 PUSH2 0xEA2 JUMP JUMPDEST SWAP2 POP POP PUSH1 0x40 DUP4 ADD MLOAD DUP5 DUP3 SUB PUSH1 0x40 DUP7 ADD MSTORE PUSH2 0xF34 DUP3 DUP3 PUSH2 0xEA2 JUMP JUMPDEST SWAP2 POP POP PUSH1 0x60 DUP4 ADD MLOAD PUSH2 0xF49 PUSH1 0x60 DUP7 ADD DUP3 PUSH2 0xEDB JUMP JUMPDEST POP PUSH1 0x80 DUP4 ADD MLOAD DUP5 DUP3 SUB PUSH1 0x80 DUP7 ADD MSTORE PUSH2 0xF61 DUP3 DUP3 PUSH2 0xEA2 JUMP JUMPDEST SWAP2 POP POP PUSH1 0xA0 DUP4 ADD MLOAD PUSH2 0xF76 PUSH1 0xA0 DUP7 ADD DUP3 PUSH2 0xE4D JUMP JUMPDEST POP PUSH1 0xC0 DUP4 ADD MLOAD PUSH2 0xF89 PUSH1 0xC0 DUP7 ADD DUP3 PUSH2 0xE4D JUMP JUMPDEST POP DUP1 SWAP2 POP POP SWAP3 SWAP2 POP POP JUMP JUMPDEST PUSH1 0x0 PUSH2 0xFA0 DUP4 DUP4 PUSH2 0xEEA JUMP JUMPDEST SWAP1 POP SWAP3 SWAP2 POP POP JUMP JUMPDEST PUSH1 0x0 PUSH1 0x20 DUP3 ADD SWAP1 POP SWAP2 SWAP1 POP JUMP JUMPDEST PUSH1 0x0 PUSH2 0xFC0 DUP3 PUSH2 0xE21 JUMP JUMPDEST PUSH2 0xFCA DUP2 DUP6 PUSH2 0xE2C JUMP JUMPDEST SWAP4 POP DUP4 PUSH1 0x20 DUP3 MUL DUP6 ADD PUSH2 0xFDC DUP6 PUSH2 0xE3D JUMP JUMPDEST DUP1 PUSH1 0x0 JUMPDEST DUP6 DUP2 LT ISZERO PUSH2 0x1018 JUMPI DUP5 DUP5 SUB DUP10 MSTORE DUP2 MLOAD PUSH2 0xFF9 DUP6 DUP3 PUSH2 0xF94 JUMP JUMPDEST SWAP5 POP PUSH2 0x1004 DUP4 PUSH2 0xFA8 JUMP JUMPDEST SWAP3 POP PUSH1 0x20 DUP11 ADD SWAP10 POP POP PUSH1 0x1 DUP2 ADD SWAP1 POP PUSH2 0xFE0 JUMP JUMPDEST POP DUP3 SWAP8 POP DUP8 SWAP6 POP POP POP POP POP POP SWAP3 SWAP2 POP POP JUMP JUMPDEST PUSH1 0x0 PUSH1 0x20 DUP3 ADD SWAP1 POP DUP2 DUP2 SUB PUSH1 0x0 DUP4 ADD MSTORE PUSH2 0x1044 DUP2 DUP5 PUSH2 0xFB5 JUMP JUMPDEST SWAP1 POP SWAP3 SWAP2 POP POP JUMP JUMPDEST PUSH1 0x0 DUP3 DUP3 MSTORE PUSH1 0x20 DUP3 ADD SWAP1 POP SWAP3 SWAP2 POP POP JUMP JUMPDEST PUSH32 0x4164647265737320616C72656164792065786973740000000000000000000000 PUSH1 0x0 DUP3 ADD MSTORE POP JUMP JUMPDEST PUSH1 0x0 PUSH2 0x1093 PUSH1 0x15 DUP4 PUSH2 0x104C JUMP JUMPDEST SWAP2 POP PUSH2 0x109E DUP3 PUSH2 0x105D JUMP JUMPDEST PUSH1 0x20 DUP3 ADD SWAP1 POP SWAP2 SWAP1 POP JUMP JUMPDEST PUSH1 0x0 PUSH1 0x20 DUP3 ADD SWAP1 POP DUP2 DUP2 SUB PUSH1 0x0 DUP4 ADD MSTORE PUSH2 0x10C2 DUP2 PUSH2 0x1086 JUMP JUMPDEST SWAP1 POP SWAP2 SWAP1 POP JUMP JUMPDEST PUSH1 0x0 DUP2 SWAP1 POP SWAP3 SWAP2 POP POP JUMP JUMPDEST PUSH1 0x0 PUSH2 0x10DF DUP3 PUSH2 0xE5C JUMP JUMPDEST PUSH2 0x10E9 DUP2 DUP6 PUSH2 0x10C9 JUMP JUMPDEST SWAP4 POP PUSH2 0x10F9 DUP2 DUP6 PUSH1 0x20 DUP7 ADD PUSH2 0xE78 JUMP JUMPDEST DUP1 DUP5 ADD SWAP2 POP POP SWAP3 SWAP2 POP POP JUMP JUMPDEST PUSH1 0x0 PUSH2 0x1111 DUP3 DUP5 PUSH2 0x10D4 JUMP JUMPDEST SWAP2 POP DUP2 SWAP1 POP SWAP3 SWAP2 POP POP JUMP JUMPDEST PUSH32 0x557365726E616D6520616C726561647920657869737400000000000000000000 PUSH1 0x0 DUP3 ADD MSTORE POP JUMP JUMPDEST PUSH1 0x0 PUSH2 0x1152 PUSH1 0x16 DUP4 PUSH2 0x104C JUMP JUMPDEST SWAP2 POP PUSH2 0x115D DUP3 PUSH2 0x111C JUMP JUMPDEST PUSH1 0x20 DUP3 ADD SWAP1 POP SWAP2 SWAP1 POP JUMP JUMPDEST PUSH1 0x0 PUSH1 0x20 DUP3 ADD SWAP1 POP DUP2 DUP2 SUB PUSH1 0x0 DUP4 ADD MSTORE PUSH2 0x1181 DUP2 PUSH2 0x1145 JUMP JUMPDEST SWAP1 POP SWAP2 SWAP1 POP JUMP JUMPDEST PUSH32 0x4E487B7100000000000000000000000000000000000000000000000000000000 PUSH1 0x0 MSTORE PUSH1 0x22 PUSH1 0x4 MSTORE PUSH1 0x24 PUSH1 0x0 REVERT JUMPDEST PUSH1 0x0 PUSH1 0x2 DUP3 DIV SWAP1 POP PUSH1 0x1 DUP3 AND DUP1 PUSH2 0x11CF JUMPI PUSH1 0x7F DUP3 AND SWAP2 POP JUMPDEST PUSH1 0x20 DUP3 LT DUP2 SUB PUSH2 0x11E2 JUMPI PUSH2 0x11E1 PUSH2 0x1188 JUMP JUMPDEST JUMPDEST POP SWAP2 SWAP1 POP JUMP JUMPDEST PUSH1 0x0 DUP2 SWAP1 POP DUP2 PUSH1 0x0 MSTORE PUSH1 0x20 PUSH1 0x0 KECCAK256 SWAP1 POP SWAP2 SWAP1 POP JUMP JUMPDEST PUSH1 0x0 PUSH1 0x20 PUSH1 0x1F DUP4 ADD DIV SWAP1 POP SWAP2 SWAP1 POP JUMP JUMPDEST PUSH1 0x0 DUP3 DUP3 SHL SWAP1 POP SWAP3 SWAP2 POP POP JUMP JUMPDEST PUSH1 0x0 PUSH1 0x8 DUP4 MUL PUSH2 0x124A PUSH32 0xFFFFFFFFFFFFFFFFFFFFFFFFFFFFFFFFFFFFFFFFFFFFFFFFFFFFFFFFFFFFFFFF DUP3 PUSH2 0x120D JUMP JUMPDEST PUSH2 0x1254 DUP7 DUP4 PUSH2 0x120D JUMP JUMPDEST SWAP6 POP DUP1 NOT DUP5 AND SWAP4 POP DUP1 DUP7 AND DUP5 OR SWAP3 POP POP POP SWAP4 SWAP3 POP POP POP JUMP JUMPDEST PUSH1 0x0 DUP2 SWAP1 POP SWAP2 SWAP1 POP JUMP JUMPDEST PUSH1 0x0 PUSH2 0x1291 PUSH2 0x128C PUSH2 0x1287 DUP5 PUSH2 0xCC9 JUMP JUMPDEST PUSH2 0x126C JUMP JUMPDEST PUSH2 0xCC9 JUMP JUMPDEST SWAP1 POP SWAP2 SWAP1 POP JUMP JUMPDEST PUSH1 0x0 DUP2 SWAP1 POP SWAP2 SWAP1 POP JUMP JUMPDEST PUSH2 0x12AB DUP4 PUSH2 0x1276 JUMP JUMPDEST PUSH2 0x12BF PUSH2 0x12B7 DUP3 PUSH2 0x1298 JUMP JUMPDEST DUP5 DUP5 SLOAD PUSH2 0x121A JUMP JUMPDEST DUP3 SSTORE POP POP POP POP JUMP JUMPDEST PUSH1 0x0 SWAP1 JUMP JUMPDEST PUSH2 0x12D4 PUSH2 0x12C7 JUMP JUMPDEST PUSH2 0x12DF DUP2 DUP5 DUP5 PUSH2 0x12A2 JUMP JUMPDEST POP POP POP JUMP JUMPDEST JUMPDEST DUP2 DUP2 LT ISZERO PUSH2 0x1303 JUMPI PUSH2 0x12F8 PUSH1 0x0 DUP3 PUSH2 0x12CC JUMP JUMPDEST PUSH1 0x1 DUP2 ADD SWAP1 POP PUSH2 0x12E5 JUMP JUMPDEST POP POP JUMP JUMPDEST PUSH1 0x1F DUP3 GT ISZERO PUSH2 0x1348 JUMPI PUSH2 0x1319 DUP2 PUSH2 0x11E8 JUMP JUMPDEST PUSH2 0x1322 DUP5 PUSH2 0x11FD JUMP JUMPDEST DUP2 ADD PUSH1 0x20 DUP6 LT ISZERO PUSH2 0x1331 JUMPI DUP2 SWAP1 POP JUMPDEST PUSH2 0x1345 PUSH2 0x133D DUP6 PUSH2 0x11FD JUMP JUMPDEST DUP4 ADD DUP3 PUSH2 0x12E4 JUMP JUMPDEST POP POP JUMPDEST POP POP POP JUMP JUMPDEST PUSH1 0x0 DUP3 DUP3 SHR SWAP1 POP SWAP3 SWAP2 POP POP JUMP JUMPDEST PUSH1 0x0 PUSH2 0x136B PUSH1 0x0 NOT DUP5 PUSH1 0x8 MUL PUSH2 0x134D JUMP JUMPDEST NOT DUP1 DUP4 AND SWAP2 POP POP SWAP3 SWAP2 POP POP JUMP JUMPDEST PUSH1 0x0 PUSH2 0x1384 DUP4 DUP4 PUSH2 0x135A JUMP JUMPDEST SWAP2 POP DUP3 PUSH1 0x2 MUL DUP3 OR SWAP1 POP SWAP3 SWAP2 POP POP JUMP JUMPDEST PUSH2 0x139D DUP3 PUSH2 0xE5C JUMP JUMPDEST PUSH8 0xFFFFFFFFFFFFFFFF DUP2 GT ISZERO PUSH2 0x13B6 JUMPI PUSH2 0x13B5 PUSH2 0xAC7 JUMP JUMPDEST JUMPDEST PUSH2 0x13C0 DUP3 SLOAD PUSH2 0x11B7 JUMP JUMPDEST PUSH2 0x13CB DUP3 DUP3 DUP6 PUSH2 0x1307 JUMP JUMPDEST PUSH1 0x0 PUSH1 0x20 SWAP1 POP PUSH1 0x1F DUP4 GT PUSH1 0x1 DUP2 EQ PUSH2 0x13FE JUMPI PUSH1 0x0 DUP5 ISZERO PUSH2 0x13EC JUMPI DUP3 DUP8 ADD MLOAD SWAP1 POP JUMPDEST PUSH2 0x13F6 DUP6 DUP3 PUSH2 0x1378 JUMP JUMPDEST DUP7 SSTORE POP PUSH2 0x145E JUMP JUMPDEST PUSH1 0x1F NOT DUP5 AND PUSH2 0x140C DUP7 PUSH2 0x11E8 JUMP JUMPDEST PUSH1 0x0 JUMPDEST DUP3 DUP2 LT ISZERO PUSH2 0x1434 JUMPI DUP5 DUP10 ADD MLOAD DUP3 SSTORE PUSH1 0x1 DUP3 ADD SWAP2 POP PUSH1 0x20 DUP6 ADD SWAP5 POP PUSH1 0x20 DUP2 ADD SWAP1 POP PUSH2 0x140F JUMP JUMPDEST DUP7 DUP4 LT ISZERO PUSH2 0x1451 JUMPI DUP5 DUP10 ADD MLOAD PUSH2 0x144D PUSH1 0x1F DUP10 AND DUP3 PUSH2 0x135A JUMP JUMPDEST DUP4 SSTORE POP JUMPDEST PUSH1 0x1 PUSH1 0x2 DUP9 MUL ADD DUP9 SSTORE POP POP POP JUMPDEST POP POP POP POP POP POP JUMP JUMPDEST PUSH1 0x0 PUSH2 0x1471 DUP3 PUSH2 0xE5C JUMP JUMPDEST PUSH2 0x147B DUP2 DUP6 PUSH2 0x104C JUMP JUMPDEST SWAP4 POP PUSH2 0x148B DUP2 DUP6 PUSH1 0x20 DUP7 ADD PUSH2 0xE78 JUMP JUMPDEST PUSH2 0x1494 DUP2 PUSH2 0xAB6 JUMP JUMPDEST DUP5 ADD SWAP2 POP POP SWAP3 SWAP2 POP POP JUMP JUMPDEST PUSH1 0x0 PUSH1 0xE0 DUP3 ADD SWAP1 POP PUSH2 0x14B4 PUSH1 0x0 DUP4 ADD DUP11 PUSH2 0xD9B JUMP JUMPDEST DUP2 DUP2 SUB PUSH1 0x20 DUP4 ADD MSTORE PUSH2 0x14C6 DUP2 DUP10 PUSH2 0x1466 JUMP JUMPDEST SWAP1 POP PUSH2 0x14D5 PUSH1 0x40 DUP4 ADD DUP9 PUSH2 0xD71 JUMP JUMPDEST DUP2 DUP2 SUB PUSH1 0x60 DUP4 ADD MSTORE PUSH2 0x14E7 DUP2 DUP8 PUSH2 0x1466 JUMP JUMPDEST SWAP1 POP DUP2 DUP2 SUB PUSH1 0x80 DUP4 ADD MSTORE PUSH2 0x14FB DUP2 DUP7 PUSH2 0x1466 JUMP JUMPDEST SWAP1 POP PUSH2 0x150A PUSH1 0xA0 DUP4 ADD DUP6 PUSH2 0xD9B JUMP JUMPDEST PUSH2 0x1517 PUSH1 0xC0 DUP4 ADD DUP5 PUSH2 0xD9B JUMP JUMPDEST SWAP9 SWAP8 POP POP POP POP POP POP POP POP JUMP JUMPDEST PUSH32 0x4E487B7100000000000000000000000000000000000000000000000000000000 PUSH1 0x0 MSTORE PUSH1 0x32 PUSH1 0x4 MSTORE PUSH1 0x24 PUSH1 0x0 REVERT JUMPDEST PUSH32 0x4E487B7100000000000000000000000000000000000000000000000000000000 PUSH1 0x0 MSTORE PUSH1 0x11 PUSH1 0x4 MSTORE PUSH1 0x24 PUSH1 0x0 REVERT JUMPDEST PUSH1 0x0 PUSH2 0x158C DUP3 PUSH2 0xCC9 JUMP JUMPDEST SWAP2 POP PUSH2 0x1597 DUP4 PUSH2 0xCC9 JUMP JUMPDEST SWAP3 POP DUP3 DUP3 SUB SWAP1 POP DUP2 DUP2 GT ISZERO PUSH2 0x15AF JUMPI PUSH2 0x15AE PUSH2 0x1552 JUMP JUMPDEST JUMPDEST SWAP3 SWAP2 POP POP JUMP JUMPDEST PUSH32 0x496E73756666696369656E742062616C00000000000000000000000000000000 PUSH1 0x0 DUP3 ADD MSTORE POP JUMP JUMPDEST PUSH1 0x0 PUSH2 0x15EB PUSH1 0x10 DUP4 PUSH2 0x104C JUMP JUMPDEST SWAP2 POP PUSH2 0x15F6 DUP3 PUSH2 0x15B5 JUMP JUMPDEST PUSH1 0x20 DUP3 ADD SWAP1 POP SWAP2 SWAP1 POP JUMP JUMPDEST PUSH1 0x0 PUSH1 0x20 DUP3 ADD SWAP1 POP DUP2 DUP2 SUB PUSH1 0x0 DUP4 ADD MSTORE PUSH2 0x161A DUP2 PUSH2 0x15DE JUMP JUMPDEST SWAP1 POP SWAP2 SWAP1 POP JUMP JUMPDEST PUSH32 0x596F7520617265206E6F74207468652063726561746F72000000000000000000 PUSH1 0x0 DUP3 ADD MSTORE POP JUMP JUMPDEST PUSH1 0x0 PUSH2 0x1657 PUSH1 0x17 DUP4 PUSH2 0x104C JUMP JUMPDEST SWAP2 POP PUSH2 0x1662 DUP3 PUSH2 0x1621 JUMP JUMPDEST PUSH1 0x20 DUP3 ADD SWAP1 POP SWAP2 SWAP1 POP JUMP JUMPDEST PUSH1 0x0 PUSH1 0x20 DUP3 ADD SWAP1 POP DUP2 DUP2 SUB PUSH1 0x0 DUP4 ADD MSTORE PUSH2 0x1686 DUP2 PUSH2 0x164A JUMP JUMPDEST SWAP1 POP SWAP2 SWAP1 POP JUMP JUMPDEST PUSH1 0x0 DUP2 SWAP1 POP SWAP3 SWAP2 POP POP JUMP JUMPDEST POP JUMP JUMPDEST PUSH1 0x0 PUSH2 0x16A8 PUSH1 0x0 DUP4 PUSH2 0x168D JUMP JUMPDEST SWAP2 POP PUSH2 0x16B3 DUP3 PUSH2 0x1698 JUMP JUMPDEST PUSH1 0x0 DUP3 ADD SWAP1 POP SWAP2 SWAP1 POP JUMP JUMPDEST PUSH1 0x0 PUSH2 0x16C9 DUP3 PUSH2 0x169B JUMP JUMPDEST SWAP2 POP DUP2 SWAP1 POP SWAP2 SWAP1 POP JUMP JUMPDEST PUSH32 0x4661696C656420746F2073656E64204574686572000000000000000000000000 PUSH1 0x0 DUP3 ADD MSTORE POP JUMP JUMPDEST PUSH1 0x0 PUSH2 0x1709 PUSH1 0x14 DUP4 PUSH2 0x104C JUMP JUMPDEST SWAP2 POP PUSH2 0x1714 DUP3 PUSH2 0x16D3 JUMP JUMPDEST PUSH1 0x20 DUP3 ADD SWAP1 POP SWAP2 SWAP1 POP JUMP JUMPDEST PUSH1 0x0 PUSH1 0x20 DUP3 ADD SWAP1 POP DUP2 DUP2 SUB PUSH1 0x0 DUP4 ADD MSTORE PUSH2 0x1738 DUP2 PUSH2 0x16FC JUMP JUMPDEST SWAP1 POP SWAP2 SWAP1 POP JUMP JUMPDEST PUSH1 0x0 PUSH2 0x174A DUP3 PUSH2 0xCC9 JUMP JUMPDEST SWAP2 POP PUSH2 0x1755 DUP4 PUSH2 0xCC9 JUMP JUMPDEST SWAP3 POP DUP3 DUP3 ADD SWAP1 POP DUP1 DUP3 GT ISZERO PUSH2 0x176D JUMPI PUSH2 0x176C PUSH2 0x1552 JUMP JUMPDEST JUMPDEST SWAP3 SWAP2 POP POP JUMP JUMPDEST PUSH32 0x496E73756666696369656E742062616C616E6365210000000000000000000000 PUSH1 0x0 DUP3 ADD MSTORE POP JUMP JUMPDEST PUSH1 0x0 PUSH2 0x17A9 PUSH1 0x15 DUP4 PUSH2 0x104C JUMP JUMPDEST SWAP2 POP PUSH2 0x17B4 DUP3 PUSH2 0x1773 JUMP JUMPDEST PUSH1 0x20 DUP3 ADD SWAP1 POP SWAP2 SWAP1 POP JUMP JUMPDEST PUSH1 0x0 PUSH1 0x20 DUP3 ADD SWAP1 POP DUP2 DUP2 SUB PUSH1 0x0 DUP4 ADD MSTORE PUSH2 0x17D8 DUP2 PUSH2 0x179C JUMP JUMPDEST SWAP1 POP SWAP2 SWAP1 POP JUMP JUMPDEST PUSH1 0x0 PUSH1 0x40 DUP3 ADD SWAP1 POP PUSH2 0x17F4 PUSH1 0x0 DUP4 ADD DUP6 PUSH2 0xD9B JUMP JUMPDEST DUP2 DUP2 SUB PUSH1 0x20 DUP4 ADD MSTORE PUSH2 0x1806 DUP2 DUP5 PUSH2 0x1466 JUMP JUMPDEST SWAP1 POP SWAP4 SWAP3 POP POP POP JUMP INVALID LOG2 PUSH5 0x6970667358 0x22 SLT KECCAK256 PUSH28 0x56457B6988463DFB0D472C7BC28C1C8A3EF8279BEC367B76523422EB SUB LOG4 PUSH32 0x64736F6C63430008110033000000000000000000000000000000000000000000 "},"gasEstimates":{"creation":{"codeDepositCost":"1242600","executionCost":"25537","totalCost":"1268137"},"external":{"creatorCounter()":"2473","creatorWithdrawTip(uint256,uint256)":"infinite","getCreatorList()":"infinite","owner()":"2536","sendTip(string,uint256)":"infinite","setCreatorDetail(string,string,string,string)":"infinite"}},"methodIdentifiers":{"creatorCounter()":"c43ad481","creatorWithdrawTip(uint256,uint256)":"746614a8","getCreatorList()":"c92d7231","owner()":"8da5cb5b","sendTip(string,uint256)":"c580ec0a","setCreatorDetail(string,string,string,string)":"25e860a5"}},"storageLayout":{"storage":[{"astId":84,"contract":"contracts/Creators.sol:Creators","label":"_creatorIds","offset":0,"slot":"0","type":"t_struct(Counter)5_storage"},{"astId":86,"contract":"contracts/Creators.sol:Creators","label":"creatorCounter","offset":0,"slot":"1","type":"t_uint256"},{"astId":127,"contract":"contracts/Creators.sol:Creators","label":"owner","offset":0,"slot":"2","type":"t_address_payable"},{"astId":143,"contract":"contracts/Creators.sol:Creators","label":"isAddressExist","offset":0,"slot":"3","type":"t_mapping(t_address,t_bool)"},{"astId":147,"contract":"contracts/Creators.sol:Creators","label":"isUsernameExist","offset":0,"slot":"4","type":"t_mapping(t_string_memory_ptr,t_bool)"},{"astId":151,"contract":"contracts/Creators.sol:Creators","label":"creatorList","offset":0,"slot":"5","type":"t_array(t_struct(CreatorInfo)101_storage)dyn_storage"}],"types":{"t_address":{"encoding":"inplace","label":"address","numberOfBytes":"20"},"t_address_payable":{"encoding":"inplace","label":"address payable","numberOfBytes":"20"},"t_array(t_struct(CreatorInfo)101_storage)dyn_storage":{"base":"t_struct(CreatorInfo)101_storage","encoding":"dynamic_array","label":"struct Creators.CreatorInfo[]","numberOfBytes":"32"},"t_bool":{"encoding":"inplace","label":"bool","numberOfBytes":"1"},"t_mapping(t_address,t_bool)":{"encoding":"mapping","key":"t_address","label":"mapping(address => bool)","numberOfBytes":"32","value":"t_bool"},"t_mapping(t_string_memory_ptr,t_bool)":{"encoding":"mapping","key":"t_string_memory_ptr","label":"mapping(string => bool)","numberOfBytes":"32","value":"t_bool"},"t_string_memory_ptr":{"encoding":"bytes","label":"string","numberOfBytes":"32"},"t_string_storage":{"encoding":"bytes","label":"string","numberOfBytes":"32"},"t_struct(Counter)5_storage":{"encoding":"inplace","label":"struct Counters.Counter","members":[{"astId":4,"contract":"contracts/Creators.sol:Creators","label":"_value","offset":0,"slot":"0","type":"t_uint256"}],"numberOfBytes":"32"},"t_struct(CreatorInfo)101_storage":{"encoding":"inplace","label":"struct Creators.CreatorInfo","members":[{"astId":88,"contract":"contracts/Creators.sol:Creators","label":"id","offset":0,"slot":"0","type":"t_uint256"},{"astId":90,"contract":"contracts/Creators.sol:Creators","label":"username","offset":0,"slot":"1","type":"t_string_storage"},{"astId":92,"contract":"contracts/Creators.sol:Creators","label":"ipfsHash","offset":0,"slot":"2","type":"t_string_storage"},{"astId":94,"contract":"contracts/Creators.sol:Creators","label":"walletAddress","offset":0,"slot":"3","type":"t_address_payable"},{"astId":96,"contract":"contracts/Creators.sol:Creators","label":"userbio","offset":0,"slot":"4","type":"t_string_storage"},{"astId":98,"contract":"contracts/Creators.sol:Creators","label":"bountiesReceived","offset":0,"slot":"5","type":"t_uint256"},{"astId":100,"contract":"contracts/Creators.sol:Creators","label":"supporters","offset":0,"slot":"6","type":"t_uint256"}],"numberOfBytes":"224"},"t_uint256":{"encoding":"inplace","label":"uint256","numberOfBytes":"32"}}},"userdoc":{"kind":"user","methods":{},"version":1}}}}