{
  "_format": "hh-sol-artifact-1",
  "contractName": "Protocols",
  "sourceName": "contracts/Protocols.sol",
  "abi": [
    {
      "anonymous": false,
      "inputs": [
        {
          "indexed": true,
          "internalType": "address",
          "name": "from",
          "type": "address"
        },
        {
          "indexed": false,
          "internalType": "uint256",
          "name": "timestamp",
          "type": "uint256"
        },
        {
          "indexed": false,
          "internalType": "string",
          "name": "message",
          "type": "string"
        }
      ],
      "name": "bountyApplications",
      "type": "event"
    },
    {
      "anonymous": false,
      "inputs": [
        {
          "indexed": false,
          "internalType": "uint256",
          "name": "id",
          "type": "uint256"
        },
        {
          "indexed": false,
          "internalType": "string",
          "name": "username",
          "type": "string"
        },
        {
          "indexed": false,
          "internalType": "string",
          "name": "ipfsHash",
          "type": "string"
        },
        {
          "indexed": false,
          "internalType": "address payable",
          "name": "walletAddress",
          "type": "address"
        },
        {
          "indexed": false,
          "internalType": "string",
          "name": "userbio",
          "type": "string"
        },
        {
          "indexed": false,
          "internalType": "uint256",
          "name": "bountyApplicants",
          "type": "uint256"
        }
      ],
      "name": "bountyRequest",
      "type": "event"
    },
    {
      "inputs": [],
      "name": "creatorCounter",
      "outputs": [
        {
          "internalType": "uint256",
          "name": "",
          "type": "uint256"
        }
      ],
      "stateMutability": "view",
      "type": "function"
    },
    {
      "inputs": [],
      "name": "getProtocolsList",
      "outputs": [
        {
          "components": [
            {
              "internalType": "uint256",
              "name": "id",
              "type": "uint256"
            },
            {
              "internalType": "string",
              "name": "username",
              "type": "string"
            },
            {
              "internalType": "string",
              "name": "ipfsHash",
              "type": "string"
            },
            {
              "internalType": "address payable",
              "name": "walletAddress",
              "type": "address"
            },
            {
              "internalType": "string",
              "name": "userbio",
              "type": "string"
            },
            {
              "internalType": "uint256",
              "name": "bountyApplications",
              "type": "uint256"
            }
          ],
          "internalType": "struct Protocols.ProtocolsInfo[]",
          "name": "",
          "type": "tuple[]"
        }
      ],
      "stateMutability": "view",
      "type": "function"
    },
    {
      "inputs": [
        {
          "internalType": "string",
          "name": "_username",
          "type": "string"
        },
        {
          "internalType": "string",
          "name": "_ipfsHash",
          "type": "string"
        },
        {
          "internalType": "string",
          "name": "_userbio",
          "type": "string"
        },
        {
          "internalType": "string",
          "name": "_bountyRequest",
          "type": "string"
        }
      ],
      "name": "setProtocolDetail",
      "outputs": [],
      "stateMutability": "view",
      "type": "function"
    }
  ],
  "bytecode": "0x608060405234801561001057600080fd5b50610ae7806100206000396000f3fe608060405234801561001057600080fd5b50600436106100415760003560e01c80634154e39e14610046578063c43ad48114610064578063ee68e03f14610082575b600080fd5b61004e61009e565b60405161005b91906106a9565b60405180910390f35b61006c61031d565b60405161007991906106da565b60405180910390f35b61009c6004803603810190610097919061083e565b610323565b005b60606004805480602002602001604051908101604052809291908181526020016000905b8282101561031457838290600052602060002090600602016040518060c0016040529081600082015481526020016001820180546100ff90610944565b80601f016020809104026020016040519081016040528092919081815260200182805461012b90610944565b80156101785780601f1061014d57610100808354040283529160200191610178565b820191906000526020600020905b81548152906001019060200180831161015b57829003601f168201915b5050505050815260200160028201805461019190610944565b80601f01602080910402602001604051908101604052809291908181526020018280546101bd90610944565b801561020a5780601f106101df5761010080835404028352916020019161020a565b820191906000526020600020905b8154815290600101906020018083116101ed57829003601f168201915b505050505081526020016003820160009054906101000a900473ffffffffffffffffffffffffffffffffffffffff1673ffffffffffffffffffffffffffffffffffffffff1673ffffffffffffffffffffffffffffffffffffffff16815260200160048201805461027990610944565b80601f01602080910402602001604051908101604052809291908181526020018280546102a590610944565b80156102f25780601f106102c7576101008083540402835291602001916102f2565b820191906000526020600020905b8154815290600101906020018083116102d557829003601f168201915b50505050508152602001600582015481525050815260200190600101906100c2565b50505050905090565b60015481565b600084511161033157600080fd5b600083511161033f57600080fd5b600082511161034d57600080fd5b600081511161035b57600080fd5b60001515600260003373ffffffffffffffffffffffffffffffffffffffff1673ffffffffffffffffffffffffffffffffffffffff16815260200190815260200160002060009054906101000a900460ff161515146103ee576040517f08c379a00000000000000000000000000000000000000000000000000000000081526004016103e5906109d2565b60405180910390fd5b600015156003856040516104029190610a2e565b908152602001604051809103902060009054906101000a900460ff16151514610460576040517f08c379a000000000000000000000000000000000000000000000000000000000815260040161045790610a91565b60405180910390fd5b50505050565b600081519050919050565b600082825260208201905092915050565b6000819050602082019050919050565b6000819050919050565b6104a581610492565b82525050565b600081519050919050565b600082825260208201905092915050565b60005b838110156104e55780820151818401526020810190506104ca565b60008484015250505050565b6000601f19601f8301169050919050565b600061050d826104ab565b61051781856104b6565b93506105278185602086016104c7565b610530816104f1565b840191505092915050565b600073ffffffffffffffffffffffffffffffffffffffff82169050919050565b60006105668261053b565b9050919050565b6105768161055b565b82525050565b600060c083016000830151610594600086018261049c565b50602083015184820360208601526105ac8282610502565b915050604083015184820360408601526105c68282610502565b91505060608301516105db606086018261056d565b50608083015184820360808601526105f38282610502565b91505060a083015161060860a086018261049c565b508091505092915050565b600061061f838361057c565b905092915050565b6000602082019050919050565b600061063f82610466565b6106498185610471565b93508360208202850161065b85610482565b8060005b8581101561069757848403895281516106788582610613565b945061068383610627565b925060208a0199505060018101905061065f565b50829750879550505050505092915050565b600060208201905081810360008301526106c38184610634565b905092915050565b6106d481610492565b82525050565b60006020820190506106ef60008301846106cb565b92915050565b6000604051905090565b600080fd5b600080fd5b600080fd5b600080fd5b7f4e487b7100000000000000000000000000000000000000000000000000000000600052604160045260246000fd5b61074b826104f1565b810181811067ffffffffffffffff8211171561076a57610769610713565b5b80604052505050565b600061077d6106f5565b90506107898282610742565b919050565b600067ffffffffffffffff8211156107a9576107a8610713565b5b6107b2826104f1565b9050602081019050919050565b82818337600083830152505050565b60006107e16107dc8461078e565b610773565b9050828152602081018484840111156107fd576107fc61070e565b5b6108088482856107bf565b509392505050565b600082601f83011261082557610824610709565b5b81356108358482602086016107ce565b91505092915050565b60008060008060808587031215610858576108576106ff565b5b600085013567ffffffffffffffff81111561087657610875610704565b5b61088287828801610810565b945050602085013567ffffffffffffffff8111156108a3576108a2610704565b5b6108af87828801610810565b935050604085013567ffffffffffffffff8111156108d0576108cf610704565b5b6108dc87828801610810565b925050606085013567ffffffffffffffff8111156108fd576108fc610704565b5b61090987828801610810565b91505092959194509250565b7f4e487b7100000000000000000000000000000000000000000000000000000000600052602260045260246000fd5b6000600282049050600182168061095c57607f821691505b60208210810361096f5761096e610915565b5b50919050565b600082825260208201905092915050565b7f4164647265737320616c72656164792065786973740000000000000000000000600082015250565b60006109bc601583610975565b91506109c782610986565b602082019050919050565b600060208201905081810360008301526109eb816109af565b9050919050565b600081905092915050565b6000610a08826104ab565b610a1281856109f2565b9350610a228185602086016104c7565b80840191505092915050565b6000610a3a82846109fd565b915081905092915050565b7f557365726e616d6520616c726561647920657869737400000000000000000000600082015250565b6000610a7b601683610975565b9150610a8682610a45565b602082019050919050565b60006020820190508181036000830152610aaa81610a6e565b905091905056fea2646970667358221220eca3a51cb550ad035e949680a4f0a9c192b2fa8a4b25ed509fff3dc63d8817de64736f6c63430008110033",
  "linkReferences": {},
  "deployedLinkReferences": {}
}